{
  "address": "0x014eEd1680F5dbC179D340B2904c0bf855E3D9F2",
  "abi": [
    {
      "inputs": [
        {
          "internalType": "address",
          "name": "_owner",
          "type": "address"
        }
      ],
      "stateMutability": "nonpayable",
      "type": "constructor"
    },
    {
      "anonymous": false,
      "inputs": [
        {
          "indexed": true,
          "internalType": "address",
          "name": "account",
          "type": "address"
        }
      ],
      "name": "AdminRoleGranted",
      "type": "event"
    },
    {
      "anonymous": false,
      "inputs": [
        {
          "indexed": true,
          "internalType": "address",
          "name": "account",
          "type": "address"
        }
      ],
      "name": "AdminRoleRevoked",
      "type": "event"
    },
    {
      "anonymous": false,
      "inputs": [
        {
          "indexed": true,
          "internalType": "address",
          "name": "account",
          "type": "address"
        }
      ],
      "name": "CSRoleGranted",
      "type": "event"
    },
    {
      "anonymous": false,
      "inputs": [
        {
          "indexed": true,
          "internalType": "address",
          "name": "account",
          "type": "address"
        }
      ],
      "name": "CSRoleRevoked",
      "type": "event"
    },
    {
      "anonymous": false,
      "inputs": [
        {
          "indexed": true,
          "internalType": "address",
          "name": "account",
          "type": "address"
        }
      ],
      "name": "ModeratorRoleGranted",
      "type": "event"
    },
    {
      "anonymous": false,
      "inputs": [
        {
          "indexed": true,
          "internalType": "address",
          "name": "account",
          "type": "address"
        }
      ],
      "name": "ModeratorRoleRevoked",
      "type": "event"
    },
    {
      "anonymous": false,
      "inputs": [
        {
          "indexed": true,
          "internalType": "bytes32",
          "name": "role",
          "type": "bytes32"
        },
        {
          "indexed": true,
          "internalType": "bytes32",
          "name": "previousAdminRole",
          "type": "bytes32"
        },
        {
          "indexed": true,
          "internalType": "bytes32",
          "name": "newAdminRole",
          "type": "bytes32"
        }
      ],
      "name": "RoleAdminChanged",
      "type": "event"
    },
    {
      "anonymous": false,
      "inputs": [
        {
          "indexed": true,
          "internalType": "bytes32",
          "name": "role",
          "type": "bytes32"
        },
        {
          "indexed": true,
          "internalType": "address",
          "name": "account",
          "type": "address"
        },
        {
          "indexed": true,
          "internalType": "address",
          "name": "sender",
          "type": "address"
        }
      ],
      "name": "RoleGranted",
      "type": "event"
    },
    {
      "anonymous": false,
      "inputs": [
        {
          "indexed": true,
          "internalType": "bytes32",
          "name": "role",
          "type": "bytes32"
        },
        {
          "indexed": true,
          "internalType": "address",
          "name": "account",
          "type": "address"
        },
        {
          "indexed": true,
          "internalType": "address",
          "name": "sender",
          "type": "address"
        }
      ],
      "name": "RoleRevoked",
      "type": "event"
    },
    {
      "inputs": [],
      "name": "DEFAULT_ADMIN_ROLE",
      "outputs": [
        {
          "internalType": "bytes32",
          "name": "",
          "type": "bytes32"
        }
      ],
      "stateMutability": "view",
      "type": "function"
    },
    {
      "inputs": [
        {
          "internalType": "uint256",
          "name": "page",
          "type": "uint256"
        },
        {
          "internalType": "uint256",
          "name": "pageSize",
          "type": "uint256"
        }
      ],
      "name": "getAdmins",
      "outputs": [
        {
          "internalType": "address[]",
          "name": "",
          "type": "address[]"
        }
      ],
      "stateMutability": "view",
      "type": "function"
    },
    {
      "inputs": [],
      "name": "getAdminsCount",
      "outputs": [
        {
          "internalType": "uint256",
          "name": "",
          "type": "uint256"
        }
      ],
      "stateMutability": "view",
      "type": "function"
    },
    {
      "inputs": [
        {
          "internalType": "uint256",
          "name": "page",
          "type": "uint256"
        },
        {
          "internalType": "uint256",
          "name": "pageSize",
          "type": "uint256"
        }
      ],
      "name": "getCSs",
      "outputs": [
        {
          "internalType": "address[]",
          "name": "",
          "type": "address[]"
        }
      ],
      "stateMutability": "view",
      "type": "function"
    },
    {
      "inputs": [
        {
          "internalType": "uint256",
          "name": "clubId",
          "type": "uint256"
        }
      ],
      "name": "getCsRole",
      "outputs": [
        {
          "internalType": "address",
          "name": "",
          "type": "address"
        }
      ],
      "stateMutability": "view",
      "type": "function"
    },
    {
      "inputs": [
        {
          "internalType": "uint256",
          "name": "page",
          "type": "uint256"
        },
        {
          "internalType": "uint256",
          "name": "pageSize",
          "type": "uint256"
        }
      ],
      "name": "getModerators",
      "outputs": [
        {
          "internalType": "address[]",
          "name": "",
          "type": "address[]"
        }
      ],
      "stateMutability": "view",
      "type": "function"
    },
    {
      "inputs": [],
      "name": "getModeratorsCount",
      "outputs": [
        {
          "internalType": "uint256",
          "name": "",
          "type": "uint256"
        }
      ],
      "stateMutability": "view",
      "type": "function"
    },
    {
      "inputs": [
        {
          "internalType": "address",
          "name": "account",
          "type": "address"
        }
      ],
      "name": "getRole",
      "outputs": [
        {
          "internalType": "string",
          "name": "",
          "type": "string"
        }
      ],
      "stateMutability": "view",
      "type": "function"
    },
    {
      "inputs": [
        {
          "internalType": "bytes32",
          "name": "role",
          "type": "bytes32"
        }
      ],
      "name": "getRoleAdmin",
      "outputs": [
        {
          "internalType": "bytes32",
          "name": "",
          "type": "bytes32"
        }
      ],
      "stateMutability": "view",
      "type": "function"
    },
    {
      "inputs": [
        {
          "internalType": "bytes32",
          "name": "role",
          "type": "bytes32"
        },
        {
          "internalType": "uint256",
          "name": "index",
          "type": "uint256"
        }
      ],
      "name": "getRoleMember",
      "outputs": [
        {
          "internalType": "address",
          "name": "",
          "type": "address"
        }
      ],
      "stateMutability": "view",
      "type": "function"
    },
    {
      "inputs": [
        {
          "internalType": "bytes32",
          "name": "role",
          "type": "bytes32"
        }
      ],
      "name": "getRoleMemberCount",
      "outputs": [
        {
          "internalType": "uint256",
          "name": "",
          "type": "uint256"
        }
      ],
      "stateMutability": "view",
      "type": "function"
    },
    {
      "inputs": [
        {
          "internalType": "address",
          "name": "account",
          "type": "address"
        }
      ],
      "name": "grantAdminRole",
      "outputs": [],
      "stateMutability": "nonpayable",
      "type": "function"
    },
    {
      "inputs": [
        {
          "internalType": "address",
          "name": "account",
          "type": "address"
        },
        {
          "internalType": "uint256",
          "name": "clubId",
          "type": "uint256"
        }
      ],
      "name": "grantCSRole",
      "outputs": [],
      "stateMutability": "nonpayable",
      "type": "function"
    },
    {
      "inputs": [
        {
          "internalType": "address",
          "name": "account",
          "type": "address"
        }
      ],
      "name": "grantModeratorRole",
      "outputs": [],
      "stateMutability": "nonpayable",
      "type": "function"
    },
    {
      "inputs": [
        {
          "internalType": "bytes32",
          "name": "role",
          "type": "bytes32"
        },
        {
          "internalType": "address",
          "name": "account",
          "type": "address"
        }
      ],
      "name": "grantRole",
      "outputs": [],
      "stateMutability": "nonpayable",
      "type": "function"
    },
    {
      "inputs": [
        {
          "internalType": "bytes32",
          "name": "role",
          "type": "bytes32"
        },
        {
          "internalType": "address",
          "name": "account",
          "type": "address"
        }
      ],
      "name": "hasRole",
      "outputs": [
        {
          "internalType": "bool",
          "name": "",
          "type": "bool"
        }
      ],
      "stateMutability": "view",
      "type": "function"
    },
    {
      "inputs": [
        {
          "internalType": "address",
          "name": "account",
          "type": "address"
        }
      ],
      "name": "isAdmin",
      "outputs": [
        {
          "internalType": "bool",
          "name": "",
          "type": "bool"
        }
      ],
      "stateMutability": "view",
      "type": "function"
    },
    {
      "inputs": [
        {
          "internalType": "address",
          "name": "account",
          "type": "address"
        }
      ],
      "name": "isAdminOrModerator",
      "outputs": [
        {
          "internalType": "bool",
          "name": "",
          "type": "bool"
        }
      ],
      "stateMutability": "view",
      "type": "function"
    },
    {
      "inputs": [
        {
          "internalType": "address",
          "name": "account",
          "type": "address"
        }
      ],
      "name": "isCS",
      "outputs": [
        {
          "internalType": "bool",
          "name": "",
          "type": "bool"
        }
      ],
      "stateMutability": "view",
      "type": "function"
    },
    {
      "inputs": [
        {
          "internalType": "address",
          "name": "account",
          "type": "address"
        },
        {
          "internalType": "uint256",
          "name": "clubId",
          "type": "uint256"
        }
      ],
      "name": "isCSOn",
      "outputs": [
        {
          "internalType": "bool",
          "name": "",
          "type": "bool"
        }
      ],
      "stateMutability": "view",
      "type": "function"
    },
    {
      "inputs": [
        {
          "internalType": "address",
          "name": "account",
          "type": "address"
        }
      ],
      "name": "isFan",
      "outputs": [
        {
          "internalType": "bool",
          "name": "",
          "type": "bool"
        }
      ],
      "stateMutability": "view",
      "type": "function"
    },
    {
      "inputs": [
        {
          "internalType": "address",
          "name": "account",
          "type": "address"
        }
      ],
      "name": "isModerator",
      "outputs": [
        {
          "internalType": "bool",
          "name": "",
          "type": "bool"
        }
      ],
      "stateMutability": "view",
      "type": "function"
    },
    {
      "inputs": [
        {
          "internalType": "address",
          "name": "account",
          "type": "address"
        }
      ],
      "name": "isStaff",
      "outputs": [
        {
          "internalType": "bool",
          "name": "",
          "type": "bool"
        }
      ],
      "stateMutability": "view",
      "type": "function"
    },
    {
      "inputs": [
        {
          "internalType": "bytes32",
          "name": "role",
          "type": "bytes32"
        },
        {
          "internalType": "address",
          "name": "account",
          "type": "address"
        }
      ],
      "name": "renounceRole",
      "outputs": [],
      "stateMutability": "nonpayable",
      "type": "function"
    },
    {
      "inputs": [
        {
          "internalType": "address",
          "name": "account",
          "type": "address"
        }
      ],
      "name": "revokeAdminRole",
      "outputs": [],
      "stateMutability": "nonpayable",
      "type": "function"
    },
    {
      "inputs": [
        {
          "internalType": "address",
          "name": "account",
          "type": "address"
        }
      ],
      "name": "revokeCSRole",
      "outputs": [],
      "stateMutability": "nonpayable",
      "type": "function"
    },
    {
      "inputs": [
        {
          "internalType": "address",
          "name": "account",
          "type": "address"
        }
      ],
      "name": "revokeModeratorRole",
      "outputs": [],
      "stateMutability": "nonpayable",
      "type": "function"
    },
    {
      "inputs": [
        {
          "internalType": "bytes32",
          "name": "role",
          "type": "bytes32"
        },
        {
          "internalType": "address",
          "name": "account",
          "type": "address"
        }
      ],
      "name": "revokeRole",
      "outputs": [],
      "stateMutability": "nonpayable",
      "type": "function"
    },
    {
      "inputs": [
        {
          "internalType": "bytes4",
          "name": "interfaceId",
          "type": "bytes4"
        }
      ],
      "name": "supportsInterface",
      "outputs": [
        {
          "internalType": "bool",
          "name": "",
          "type": "bool"
        }
      ],
      "stateMutability": "view",
      "type": "function"
    }
  ],
  "transactionHash": "0xa26c9fefcfefd4ce9a382f640080ee6e700ed1a1fe0e8908e7f49e602021e8c4",
  "args": [
    "0x40310f844bFA971bdFD3Fa9D2D73E1B7e1F5B879"
  ],
  "numDeployments": 1,
  "solcInputHash": "d3c713585b280630f81a0d8792615a99",
  "bytecode": "0x60a06040523480156200001157600080fd5b5060405162001f2b38038062001f2b8339810160408190526200003491620002fe565b6200004f60008051602062001eeb833981519152806200014e565b6200007960008051602062001ecb83398151915260008051602062001eeb8339815191526200014e565b620000a360008051602062001f0b83398151915260008051602062001eeb8339815191526200014e565b620000cd60008051602062001eab83398151915260008051602062001ecb8339815191526200014e565b620000f760008051602062001eab83398151915260008051602062001eeb8339815191526200014e565b6200012160008051602062001f0b83398151915260008051602062001eab8339815191526200014e565b6200013c60008051602062001eeb8339815191528262000199565b6001600160a01b031660805262000330565b600082815260208190526040808220600101805490849055905190918391839186917fbd79b86ffe0ab8e8776151514217cd7cacd52c909f66475c3af44e129f0b00ff9190a4505050565b620001a58282620001a9565b5050565b620001c08282620001ec60201b62000fcc1760201c565b6000828152600160209081526040909120620001e7918390620010506200028c821b17901c565b505050565b6000828152602081815260408083206001600160a01b038516845290915290205460ff16620001a5576000828152602081815260408083206001600160a01b03851684529091529020805460ff19166001179055620002483390565b6001600160a01b0316816001600160a01b0316837f2f8788117e7eff1d82e926ec794901d17c78024a50270940304540a733656f0d60405160405180910390a45050565b6000620002a3836001600160a01b038416620002ac565b90505b92915050565b6000818152600183016020526040812054620002f557508154600181810184556000848152602080822090930184905584548482528286019093526040902091909155620002a6565b506000620002a6565b6000602082840312156200031157600080fd5b81516001600160a01b03811681146200032957600080fd5b9392505050565b608051611b5f6200034c6000396000610b4a0152611b5f6000f3fe608060405234801561001057600080fd5b50600436106101cf5760003560e01c806392b908b211610104578063ca15c873116100a2578063dec646e111610071578063dec646e114610416578063e3e7ecca14610429578063e80415221461043c578063fa6f39361461044457600080fd5b8063ca15c873146103ca578063cade9471146103dd578063cb510e97146103f0578063d547741f1461040357600080fd5b8063a905d51f116100de578063a905d51f1461037e578063aa232dc214610391578063c192ca98146103a4578063c634b78e146103b757600080fd5b806392b908b2146103505780639a19c7b014610363578063a217fddf1461037657600080fd5b806344276733116101715780635ae4223d1161014b5780635ae4223d14610304578063864a50b1146103175780639010d07c1461032a57806391d148541461033d57600080fd5b806344276733146102905780634d5afa00146102b057806357591e31146102f157600080fd5b806324d7806c116101ad57806324d7806c1461024d5780632f2ff15d1461026057806336568abe146102755780633f4226721461028857600080fd5b806301ffc9a7146101d457806302a40cc6146101fc578063248a9ca31461021c575b600080fd5b6101e76101e236600461173d565b610457565b60405190151581526020015b60405180910390f35b61020f61020a366004611767565b610482565b6040516101f39190611789565b61023f61022a3660046117d6565b60009081526020819052604090206001015490565b6040519081526020016101f3565b6101e761025b366004611806565b6104a4565b61027361026e366004611821565b6104be565b005b610273610283366004611821565b6104e8565b61023f61056b565b6102a361029e366004611806565b610589565b6040516101f39190611871565b6102d96102be3660046117d6565b6000908152600260205260409020546001600160a01b031690565b6040516001600160a01b0390911681526020016101f3565b6102736102ff3660046118a4565b610690565b6101e7610312366004611806565b6107f5565b610273610325366004611806565b61082d565b6102d9610338366004611767565b610945565b6101e761034b366004611821565b61095d565b61027361035e366004611806565b610986565b610273610371366004611806565b610a93565b61023f600081565b6101e761038c366004611806565b610c0f565b61027361039f366004611806565b610c3b565b6101e76103b2366004611806565b610d67565b6102736103c5366004611806565b610d81565b61023f6103d83660046117d6565b610e8f565b61020f6103eb366004611767565b610ea6565b6101e76103fe366004611806565b610ec1565b610273610411366004611821565b610f17565b61020f610424366004611767565b610f3c565b6101e76104373660046118a4565b610f57565b61023f610f99565b6101e7610452366004611806565b610fb2565b60006001600160e01b03198216635a05180f60e01b148061047c575061047c82611065565b92915050565b606061049d8383600080516020611aca83398151915261109a565b9392505050565b600061047c600080516020611b0a8339815191528361095d565b6000828152602081905260409020600101546104d981611235565b6104e38383611242565b505050565b6001600160a01b038116331461055d5760405162461bcd60e51b815260206004820152602f60248201527f416363657373436f6e74726f6c3a2063616e206f6e6c792072656e6f756e636560448201526e103937b632b9903337b91039b2b63360891b60648201526084015b60405180910390fd5b6105678282611264565b5050565b6000610584600080516020611aea833981519152610e8f565b905090565b60606001600160a01b0382166105b15760405162461bcd60e51b8152600401610554906118ce565b6105c9600080516020611b0a8339815191528361095d565b156105ef57505060408051808201909152600581526420a226a4a760d91b602082015290565b610607600080516020611aea8339815191528361095d565b1561063157505060408051808201909152600981526826a7a222a920aa27a960b91b602082015290565b610649600080516020611aca8339815191528361095d565b1561066c575050604080518082019091526002815261435360f01b602082015290565b50506040805180820190915260038152622320a760e91b602082015290565b919050565b6106a8600080516020611b0a8339815191523361095d565b806106c657506106c6600080516020611aea8339815191523361095d565b6106e25760405162461bcd60e51b815260040161055490611905565b6001600160a01b0382166107085760405162461bcd60e51b8152600401610554906118ce565b610720600080516020611aca8339815191528361095d565b156107875760405162461bcd60e51b815260206004820152603160248201527f5573657220697320616c7265616479206120436f6d6d756e697479205374657760448201527030b932103337b9103a3434b99031b63ab160791b6064820152608401610554565b61079f600080516020611aca833981519152836104be565b60008181526002602052604080822080546001600160a01b0319166001600160a01b038616908117909155905190917f8427e240b3150ebf4759a6506cb665f4a9edfa1d0377b7e8f5c48e299c0c2fb991a25050565b600061080f600080516020611b0a8339815191528361095d565b8061047c575061047c600080516020611aea8339815191528361095d565b610845600080516020611b0a8339815191523361095d565b806108635750610863600080516020611aea8339815191523361095d565b61087f5760405162461bcd60e51b815260040161055490611905565b610897600080516020611aca8339815191528261095d565b6108f65760405162461bcd60e51b815260206004820152602a60248201527f5573657220646f6573206e6f742068617665206120435320726f6c6520666f72604482015269103a3434b99031b63ab160b11b6064820152608401610554565b61090e600080516020611aca83398151915282610f17565b6040516001600160a01b038216907fa9e1df9f02ca6f33985fe7b8f8f5108f73df33c1f43c73a7328f26a1f0b7f53790600090a250565b600082815260016020526040812061049d9083611286565b6000918252602082815260408084206001600160a01b0393909316845291905290205460ff1690565b61099e600080516020611b0a8339815191523361095d565b6109ba5760405162461bcd60e51b81526004016105549061193a565b6001600160a01b0381166109e05760405162461bcd60e51b8152600401610554906118ce565b6109f8600080516020611aea8339815191528261095d565b610a445760405162461bcd60e51b815260206004820152601760248201527f55736572206973206e6f742061206d6f64657261746f720000000000000000006044820152606401610554565b610a5c600080516020611aea83398151915282610f17565b6040516001600160a01b038216907ff4b481a8eaf032b600cda9295c137e21ad9b9cff68d4ea096df40eb5529ee4c390600090a250565b610aab600080516020611b0a8339815191523361095d565b610ac75760405162461bcd60e51b81526004016105549061193a565b6001600160a01b038116610aed5760405162461bcd60e51b8152600401610554906118ce565b610b05600080516020611b0a8339815191528261095d565b610b485760405162461bcd60e51b81526020600482015260146024820152732ab9b2b91034b9903737ba1030b71020b236b4b760611b6044820152606401610554565b7f00000000000000000000000000000000000000000000000000000000000000006001600160a01b0316816001600160a01b031603610bc05760405162461bcd60e51b81526020600482015260146024820152732ab9b2b91034b99029bab83832b91020b236b4b760611b6044820152606401610554565b610bd8600080516020611b0a83398151915282610f17565b6040516001600160a01b038216907fff056b54863f72d44c5d5da6661b36f5c54f84999bdaab2d923a2e155316b18d90600090a250565b600061047c7fbca0505abd2b509ad0eaa840e6f168977e35443c6d3673d54b38d65824c638728361095d565b610c53600080516020611b0a8339815191523361095d565b80610c715750610c71600080516020611aea8339815191523361095d565b610c8d5760405162461bcd60e51b815260040161055490611905565b6001600160a01b038116610cb35760405162461bcd60e51b8152600401610554906118ce565b610ccb600080516020611aea8339815191528261095d565b15610d185760405162461bcd60e51b815260206004820152601b60248201527f5573657220697320616c72656164792061206d6f64657261746f7200000000006044820152606401610554565b610d30600080516020611aea833981519152826104be565b6040516001600160a01b038216907f64f62e8f109e0d0df41ef9f6576112449c62d747a069b706d87fb8e99ed84fed90600090a250565b600061047c600080516020611aca8339815191528361095d565b610d99600080516020611b0a8339815191523361095d565b610db55760405162461bcd60e51b81526004016105549061193a565b6001600160a01b038116610ddb5760405162461bcd60e51b8152600401610554906118ce565b610df3600080516020611b0a8339815191528261095d565b15610e405760405162461bcd60e51b815260206004820152601860248201527f5573657220697320616c726561647920616e2061646d696e00000000000000006044820152606401610554565b610e58600080516020611b0a833981519152826104be565b6040516001600160a01b038216907f75f5f7b6b03ef1c0bfc7445f5f5749b69ba4e3be14a7c4d11e48323f9e05cffb90600090a250565b600081815260016020526040812061047c90611292565b606061049d8383600080516020611b0a83398151915261109a565b6000610edb600080516020611b0a8339815191528361095d565b80610ef95750610ef9600080516020611aea8339815191528361095d565b8061047c575061047c600080516020611aca8339815191528361095d565b600082815260208190526040902060010154610f3281611235565b6104e38383611264565b606061049d8383600080516020611aea83398151915261109a565b6000610f71600080516020611aca8339815191528461095d565b801561049d5750506000908152600260205260409020546001600160a01b0391821691161490565b6000610584600080516020611b0a833981519152610e8f565b600061047c600080516020611aea8339815191528361095d565b610fd6828261095d565b610567576000828152602081815260408083206001600160a01b03851684529091529020805460ff1916600117905561100c3390565b6001600160a01b0316816001600160a01b0316837f2f8788117e7eff1d82e926ec794901d17c78024a50270940304540a733656f0d60405160405180910390a45050565b600061049d836001600160a01b03841661129c565b60006001600160e01b03198216637965db0b60e01b148061047c57506301ffc9a760e01b6001600160e01b031983161461047c565b60606000831180156110ad575060648311155b6110f95760405162461bcd60e51b815260206004820152601960248201527f496e76616c696420706167652073697a65206e756d62657221000000000000006044820152606401610554565b600084116111405760405162461bcd60e51b8152602060048201526014602482015273496e76616c69642070616765206e756d6265722160601b6044820152606401610554565b60008061114e8686866112eb565b9092509050600061115f8284611980565b90506001811015611184575050604080516000815260208101909152915061049d9050565b60008167ffffffffffffffff81111561119f5761119f611993565b6040519080825280602002602001820160405280156111c8578160200160208202803683370190505b50905060006111d8600184611980565b9050835b85811015611227576111ee8882610945565b838381518110611200576112006119a9565b6001600160a01b0390921660209283029190910190910152600019909101906001016111dc565b509098975050505050505050565b61123f813361139f565b50565b61124c8282610fcc565b60008281526001602052604090206104e39082611050565b61126e82826113f8565b60008281526001602052604090206104e3908261145d565b600061049d8383611472565b600061047c825490565b60008181526001830160205260408120546112e35750815460018181018455600084815260208082209093018490558454848252828601909352604090209190915561047c565b50600061047c565b60008060006112f984610e8f565b905080600003611310576000809250925050611397565b600061131c86836119d5565b905061132886836119e9565b15611331576001015b8087111561134757600080935093505050611397565b600080838861135760018c611980565b61136191906119fd565b1015611376578760018a03028403915061137a565b8391505b8782111561138f5761138c8883611980565b90505b909450925050505b935093915050565b6113a9828261095d565b610567576113b68161149c565b6113c18360206114ae565b6040516020016113d2929190611a14565b60408051601f198184030181529082905262461bcd60e51b825261055491600401611871565b611402828261095d565b15610567576000828152602081815260408083206001600160a01b0385168085529252808320805460ff1916905551339285917ff6391f5c32d9c69d2a47ea670b442974b53935d1edc7fd64eb21e047a839171b9190a45050565b600061049d836001600160a01b03841661164a565b6000826000018281548110611489576114896119a9565b9060005260206000200154905092915050565b606061047c6001600160a01b03831660145b606060006114bd8360026119fd565b6114c8906002611a89565b67ffffffffffffffff8111156114e0576114e0611993565b6040519080825280601f01601f19166020018201604052801561150a576020820181803683370190505b509050600360fc1b81600081518110611525576115256119a9565b60200101906001600160f81b031916908160001a905350600f60fb1b81600181518110611554576115546119a9565b60200101906001600160f81b031916908160001a90535060006115788460026119fd565b611583906001611a89565b90505b60018111156115fb576f181899199a1a9b1b9c1cb0b131b232b360811b85600f16601081106115b7576115b76119a9565b1a60f81b8282815181106115cd576115cd6119a9565b60200101906001600160f81b031916908160001a90535060049490941c936115f481611a9c565b9050611586565b50831561049d5760405162461bcd60e51b815260206004820181905260248201527f537472696e67733a20686578206c656e67746820696e73756666696369656e746044820152606401610554565b6000818152600183016020526040812054801561173357600061166e600183611980565b855490915060009061168290600190611980565b90508181146116e75760008660000182815481106116a2576116a26119a9565b90600052602060002001549050808760000184815481106116c5576116c56119a9565b6000918252602080832090910192909255918252600188019052604090208390555b85548690806116f8576116f8611ab3565b60019003818190600052602060002001600090559055856001016000868152602001908152602001600020600090556001935050505061047c565b600091505061047c565b60006020828403121561174f57600080fd5b81356001600160e01b03198116811461049d57600080fd5b6000806040838503121561177a57600080fd5b50508035926020909101359150565b6020808252825182820181905260009190848201906040850190845b818110156117ca5783516001600160a01b0316835292840192918401916001016117a5565b50909695505050505050565b6000602082840312156117e857600080fd5b5035919050565b80356001600160a01b038116811461068b57600080fd5b60006020828403121561181857600080fd5b61049d826117ef565b6000806040838503121561183457600080fd5b82359150611844602084016117ef565b90509250929050565b60005b83811015611868578181015183820152602001611850565b50506000910152565b602081526000825180602084015261189081604085016020870161184d565b601f01601f19169190910160400192915050565b600080604083850312156118b757600080fd5b6118c0836117ef565b946020939093013593505050565b60208082526017908201527f496e76616c6964206163636f756e742061646472657373000000000000000000604082015260600190565b6020808252818101527f43616c6c6572206973206e6f742061646d696e206f72206d6f64657261746f72604082015260600190565b60208082526016908201527521b0b63632b91034b9903737ba1030b71030b236b4b760511b604082015260600190565b634e487b7160e01b600052601160045260246000fd5b8181038181111561047c5761047c61196a565b634e487b7160e01b600052604160045260246000fd5b634e487b7160e01b600052603260045260246000fd5b634e487b7160e01b600052601260045260246000fd5b6000826119e4576119e46119bf565b500490565b6000826119f8576119f86119bf565b500690565b808202811582820484141761047c5761047c61196a565b7f416363657373436f6e74726f6c3a206163636f756e7420000000000000000000815260008351611a4c81601785016020880161184d565b7001034b99036b4b9b9b4b733903937b6329607d1b6017918401918201528351611a7d81602884016020880161184d565b01602801949350505050565b8082018082111561047c5761047c61196a565b600081611aab57611aab61196a565b506000190190565b634e487b7160e01b600052603160045260246000fdfe38df3a762911a04753fb0565d023999e364361ee775c7d83ad1c80489528c46f71f3d55856e4058ed06ee057d79ada615f65cdf5f9ee88181b914225088f834fa49807205ce4d355092ef5a8a18f56e8913cf4a201fbe287825b095693c21775a2646970667358221220690af9b33fd7307c343610ba577ed8d1a8c540ca5d28a54b179eb0d35f6d91de64736f6c6343000811003338df3a762911a04753fb0565d023999e364361ee775c7d83ad1c80489528c46f71f3d55856e4058ed06ee057d79ada615f65cdf5f9ee88181b914225088f834fa49807205ce4d355092ef5a8a18f56e8913cf4a201fbe287825b095693c21775bca0505abd2b509ad0eaa840e6f168977e35443c6d3673d54b38d65824c63872",
  "devdoc": {
    "kind": "dev",
    "methods": {
      "getRoleAdmin(bytes32)": {
        "details": "Returns the admin role that controls `role`. See {grantRole} and {revokeRole}. To change a role's admin, use {_setRoleAdmin}."
      },
      "getRoleMember(bytes32,uint256)": {
        "details": "Returns one of the accounts that have `role`. `index` must be a value between 0 and {getRoleMemberCount}, non-inclusive. Role bearers are not sorted in any particular way, and their ordering may change at any point. WARNING: When using {getRoleMember} and {getRoleMemberCount}, make sure you perform all queries on the same block. See the following https://forum.openzeppelin.com/t/iterating-over-elements-on-enumerableset-in-openzeppelin-contracts/2296[forum post] for more information."
      },
      "getRoleMemberCount(bytes32)": {
        "details": "Returns the number of accounts that have `role`. Can be used together with {getRoleMember} to enumerate all bearers of a role."
      },
      "grantRole(bytes32,address)": {
        "details": "Grants `role` to `account`. If `account` had not been already granted `role`, emits a {RoleGranted} event. Requirements: - the caller must have ``role``'s admin role. May emit a {RoleGranted} event."
      },
      "hasRole(bytes32,address)": {
        "details": "Returns `true` if `account` has been granted `role`."
      },
      "renounceRole(bytes32,address)": {
        "details": "Revokes `role` from the calling account. Roles are often managed via {grantRole} and {revokeRole}: this function's purpose is to provide a mechanism for accounts to lose their privileges if they are compromised (such as when a trusted device is misplaced). If the calling account had been revoked `role`, emits a {RoleRevoked} event. Requirements: - the caller must be `account`. May emit a {RoleRevoked} event."
      },
      "revokeRole(bytes32,address)": {
        "details": "Revokes `role` from `account`. If `account` had been granted `role`, emits a {RoleRevoked} event. Requirements: - the caller must have ``role``'s admin role. May emit a {RoleRevoked} event."
      },
      "supportsInterface(bytes4)": {
        "details": "See {IERC165-supportsInterface}."
      }
    },
    "version": 1
  },
  "userdoc": {
    "kind": "user",
    "methods": {},
    "version": 1
  },
  "storageLayout": {
    "storage": [
      {
        "astId": 24,
        "contract": "contracts/Roles.sol:Roles",
        "label": "_roles",
        "offset": 0,
        "slot": "0",
        "type": "t_mapping(t_bytes32,t_struct(RoleData)19_storage)"
      },
      {
        "astId": 334,
        "contract": "contracts/Roles.sol:Roles",
        "label": "_roleMembers",
        "offset": 0,
        "slot": "1",
        "type": "t_mapping(t_bytes32,t_struct(AddressSet)2204_storage)"
      },
      {
        "astId": 5125,
        "contract": "contracts/Roles.sol:Roles",
        "label": "clubIdToCs",
        "offset": 0,
        "slot": "2",
        "type": "t_mapping(t_uint256,t_address)"
      }
    ],
    "types": {
      "t_address": {
        "encoding": "inplace",
        "label": "address",
        "numberOfBytes": "20"
      },
      "t_array(t_bytes32)dyn_storage": {
        "base": "t_bytes32",
        "encoding": "dynamic_array",
        "label": "bytes32[]",
        "numberOfBytes": "32"
      },
      "t_bool": {
        "encoding": "inplace",
        "label": "bool",
        "numberOfBytes": "1"
      },
      "t_bytes32": {
        "encoding": "inplace",
        "label": "bytes32",
        "numberOfBytes": "32"
      },
      "t_mapping(t_address,t_bool)": {
        "encoding": "mapping",
        "key": "t_address",
        "label": "mapping(address => bool)",
        "numberOfBytes": "32",
        "value": "t_bool"
      },
      "t_mapping(t_bytes32,t_struct(AddressSet)2204_storage)": {
        "encoding": "mapping",
        "key": "t_bytes32",
        "label": "mapping(bytes32 => struct EnumerableSet.AddressSet)",
        "numberOfBytes": "32",
        "value": "t_struct(AddressSet)2204_storage"
      },
      "t_mapping(t_bytes32,t_struct(RoleData)19_storage)": {
        "encoding": "mapping",
        "key": "t_bytes32",
        "label": "mapping(bytes32 => struct AccessControl.RoleData)",
        "numberOfBytes": "32",
        "value": "t_struct(RoleData)19_storage"
      },
      "t_mapping(t_bytes32,t_uint256)": {
        "encoding": "mapping",
        "key": "t_bytes32",
        "label": "mapping(bytes32 => uint256)",
        "numberOfBytes": "32",
        "value": "t_uint256"
      },
      "t_mapping(t_uint256,t_address)": {
        "encoding": "mapping",
        "key": "t_uint256",
        "label": "mapping(uint256 => address)",
        "numberOfBytes": "32",
        "value": "t_address"
      },
      "t_struct(AddressSet)2204_storage": {
        "encoding": "inplace",
        "label": "struct EnumerableSet.AddressSet",
        "members": [
          {
            "astId": 2203,
            "contract": "contracts/Roles.sol:Roles",
            "label": "_inner",
            "offset": 0,
            "slot": "0",
            "type": "t_struct(Set)1889_storage"
          }
        ],
        "numberOfBytes": "64"
      },
      "t_struct(RoleData)19_storage": {
        "encoding": "inplace",
        "label": "struct AccessControl.RoleData",
        "members": [
          {
            "astId": 16,
            "contract": "contracts/Roles.sol:Roles",
            "label": "members",
            "offset": 0,
            "slot": "0",
            "type": "t_mapping(t_address,t_bool)"
          },
          {
            "astId": 18,
            "contract": "contracts/Roles.sol:Roles",
            "label": "adminRole",
            "offset": 0,
            "slot": "1",
            "type": "t_bytes32"
          }
        ],
        "numberOfBytes": "64"
      },
      "t_struct(Set)1889_storage": {
        "encoding": "inplace",
        "label": "struct EnumerableSet.Set",
        "members": [
          {
            "astId": 1884,
            "contract": "contracts/Roles.sol:Roles",
            "label": "_values",
            "offset": 0,
            "slot": "0",
            "type": "t_array(t_bytes32)dyn_storage"
          },
          {
            "astId": 1888,
            "contract": "contracts/Roles.sol:Roles",
            "label": "_indexes",
            "offset": 0,
            "slot": "1",
            "type": "t_mapping(t_bytes32,t_uint256)"
          }
        ],
        "numberOfBytes": "64"
      },
      "t_uint256": {
        "encoding": "inplace",
        "label": "uint256",
        "numberOfBytes": "32"
      }
    }
  }
}