{
  "address": "0x344A40a76Df40583e649592F75ED0232a8379af4",
  "abi": [
    {
      "inputs": [
        {
          "internalType": "address",
          "name": "rolesContract",
          "type": "address"
        }
      ],
      "stateMutability": "nonpayable",
      "type": "constructor"
    },
    {
      "anonymous": false,
      "inputs": [
        {
          "indexed": false,
          "internalType": "uint256",
          "name": "clubId",
          "type": "uint256"
        },
        {
          "indexed": false,
          "internalType": "string",
          "name": "name",
          "type": "string"
        },
        {
          "indexed": false,
          "internalType": "address",
          "name": "moderator",
          "type": "address"
        }
      ],
      "name": "ClubCreated",
      "type": "event"
    },
    {
      "anonymous": false,
      "inputs": [
        {
          "indexed": false,
          "internalType": "address",
          "name": "user",
          "type": "address"
        },
        {
          "indexed": false,
          "internalType": "uint256",
          "name": "clubId",
          "type": "uint256"
        }
      ],
      "name": "JoinedClub",
      "type": "event"
    },
    {
      "anonymous": false,
      "inputs": [
        {
          "indexed": false,
          "internalType": "address",
          "name": "user",
          "type": "address"
        },
        {
          "indexed": false,
          "internalType": "uint256",
          "name": "clubId",
          "type": "uint256"
        }
      ],
      "name": "LeftClub",
      "type": "event"
    },
    {
      "anonymous": false,
      "inputs": [
        {
          "indexed": true,
          "internalType": "address",
          "name": "user",
          "type": "address"
        },
        {
          "indexed": true,
          "internalType": "uint256",
          "name": "clubId",
          "type": "uint256"
        }
      ],
      "name": "MembershipApproved",
      "type": "event"
    },
    {
      "anonymous": false,
      "inputs": [
        {
          "indexed": true,
          "internalType": "address",
          "name": "user",
          "type": "address"
        },
        {
          "indexed": true,
          "internalType": "uint256",
          "name": "clubId",
          "type": "uint256"
        }
      ],
      "name": "MembershipRejected",
      "type": "event"
    },
    {
      "anonymous": false,
      "inputs": [
        {
          "indexed": true,
          "internalType": "address",
          "name": "user",
          "type": "address"
        },
        {
          "indexed": true,
          "internalType": "uint256",
          "name": "clubId",
          "type": "uint256"
        }
      ],
      "name": "MembershipRequested",
      "type": "event"
    },
    {
      "inputs": [
        {
          "internalType": "uint256",
          "name": "",
          "type": "uint256"
        }
      ],
      "name": "_clubs",
      "outputs": [
        {
          "internalType": "uint256",
          "name": "id",
          "type": "uint256"
        },
        {
          "internalType": "string",
          "name": "name",
          "type": "string"
        },
        {
          "internalType": "address",
          "name": "creator",
          "type": "address"
        },
        {
          "internalType": "uint256",
          "name": "createdOn",
          "type": "uint256"
        }
      ],
      "stateMutability": "view",
      "type": "function"
    },
    {
      "inputs": [
        {
          "internalType": "address",
          "name": "user",
          "type": "address"
        },
        {
          "internalType": "uint256",
          "name": "clubId",
          "type": "uint256"
        }
      ],
      "name": "approveMembership",
      "outputs": [],
      "stateMutability": "nonpayable",
      "type": "function"
    },
    {
      "inputs": [
        {
          "internalType": "string",
          "name": "name",
          "type": "string"
        }
      ],
      "name": "createClub",
      "outputs": [],
      "stateMutability": "nonpayable",
      "type": "function"
    },
    {
      "inputs": [
        {
          "internalType": "address",
          "name": "",
          "type": "address"
        }
      ],
      "name": "csToClub",
      "outputs": [
        {
          "internalType": "uint256",
          "name": "",
          "type": "uint256"
        }
      ],
      "stateMutability": "view",
      "type": "function"
    },
    {
      "inputs": [
        {
          "internalType": "uint256",
          "name": "clubId",
          "type": "uint256"
        }
      ],
      "name": "didIRequestedMembership",
      "outputs": [
        {
          "internalType": "bool",
          "name": "",
          "type": "bool"
        }
      ],
      "stateMutability": "view",
      "type": "function"
    },
    {
      "inputs": [
        {
          "internalType": "uint256",
          "name": "clubId",
          "type": "uint256"
        }
      ],
      "name": "getClubCreator",
      "outputs": [
        {
          "internalType": "address",
          "name": "",
          "type": "address"
        }
      ],
      "stateMutability": "view",
      "type": "function"
    },
    {
      "inputs": [
        {
          "internalType": "uint256",
          "name": "clubId",
          "type": "uint256"
        }
      ],
      "name": "getClubDetails",
      "outputs": [
        {
          "components": [
            {
              "internalType": "uint256",
              "name": "id",
              "type": "uint256"
            },
            {
              "internalType": "string",
              "name": "name",
              "type": "string"
            },
            {
              "internalType": "address",
              "name": "creator",
              "type": "address"
            },
            {
              "internalType": "uint256",
              "name": "createdOn",
              "type": "uint256"
            },
            {
              "internalType": "uint256",
              "name": "joinedOn",
              "type": "uint256"
            },
            {
              "internalType": "uint256",
              "name": "membershipRequestedOn",
              "type": "uint256"
            }
          ],
          "internalType": "struct Club.ClubPresenter",
          "name": "",
          "type": "tuple"
        }
      ],
      "stateMutability": "view",
      "type": "function"
    },
    {
      "inputs": [
        {
          "internalType": "uint256",
          "name": "page",
          "type": "uint256"
        },
        {
          "internalType": "uint256",
          "name": "pageSize",
          "type": "uint256"
        }
      ],
      "name": "getClubs",
      "outputs": [
        {
          "components": [
            {
              "internalType": "uint256",
              "name": "id",
              "type": "uint256"
            },
            {
              "internalType": "string",
              "name": "name",
              "type": "string"
            },
            {
              "internalType": "address",
              "name": "creator",
              "type": "address"
            },
            {
              "internalType": "uint256",
              "name": "createdOn",
              "type": "uint256"
            },
            {
              "internalType": "uint256",
              "name": "joinedOn",
              "type": "uint256"
            },
            {
              "internalType": "uint256",
              "name": "membershipRequestedOn",
              "type": "uint256"
            }
          ],
          "internalType": "struct Club.ClubPresenter[]",
          "name": "",
          "type": "tuple[]"
        }
      ],
      "stateMutability": "view",
      "type": "function"
    },
    {
      "inputs": [
        {
          "internalType": "uint256",
          "name": "page",
          "type": "uint256"
        },
        {
          "internalType": "uint256",
          "name": "pageSize",
          "type": "uint256"
        }
      ],
      "name": "getCsRoles",
      "outputs": [
        {
          "components": [
            {
              "internalType": "uint256",
              "name": "clubId",
              "type": "uint256"
            },
            {
              "internalType": "string",
              "name": "clubName",
              "type": "string"
            },
            {
              "internalType": "address",
              "name": "cs",
              "type": "address"
            }
          ],
          "internalType": "struct Club.CsRolePresenter[]",
          "name": "",
          "type": "tuple[]"
        }
      ],
      "stateMutability": "view",
      "type": "function"
    },
    {
      "inputs": [
        {
          "internalType": "uint256",
          "name": "clubId",
          "type": "uint256"
        },
        {
          "internalType": "uint256",
          "name": "page",
          "type": "uint256"
        },
        {
          "internalType": "uint256",
          "name": "pageSize",
          "type": "uint256"
        }
      ],
      "name": "getMembers",
      "outputs": [
        {
          "components": [
            {
              "internalType": "address",
              "name": "member",
              "type": "address"
            },
            {
              "internalType": "uint256",
              "name": "ceatedAt",
              "type": "uint256"
            }
          ],
          "internalType": "struct MemberRecord[]",
          "name": "",
          "type": "tuple[]"
        }
      ],
      "stateMutability": "view",
      "type": "function"
    },
    {
      "inputs": [
        {
          "internalType": "uint256",
          "name": "clubId",
          "type": "uint256"
        }
      ],
      "name": "getMembersCount",
      "outputs": [
        {
          "internalType": "uint256",
          "name": "",
          "type": "uint256"
        }
      ],
      "stateMutability": "view",
      "type": "function"
    },
    {
      "inputs": [
        {
          "internalType": "uint256",
          "name": "clubId",
          "type": "uint256"
        },
        {
          "internalType": "uint256",
          "name": "page",
          "type": "uint256"
        },
        {
          "internalType": "uint256",
          "name": "pageSize",
          "type": "uint256"
        }
      ],
      "name": "getMembershipRequests",
      "outputs": [
        {
          "components": [
            {
              "internalType": "address",
              "name": "member",
              "type": "address"
            },
            {
              "internalType": "uint256",
              "name": "ceatedAt",
              "type": "uint256"
            }
          ],
          "internalType": "struct MemberRecord[]",
          "name": "",
          "type": "tuple[]"
        }
      ],
      "stateMutability": "view",
      "type": "function"
    },
    {
      "inputs": [
        {
          "internalType": "uint256",
          "name": "clubId",
          "type": "uint256"
        }
      ],
      "name": "getMembershipRequestsCount",
      "outputs": [
        {
          "internalType": "uint256",
          "name": "",
          "type": "uint256"
        }
      ],
      "stateMutability": "view",
      "type": "function"
    },
    {
      "inputs": [
        {
          "internalType": "address",
          "name": "user",
          "type": "address"
        },
        {
          "internalType": "uint256",
          "name": "clubId",
          "type": "uint256"
        }
      ],
      "name": "hasRequestedMembership",
      "outputs": [
        {
          "internalType": "bool",
          "name": "",
          "type": "bool"
        }
      ],
      "stateMutability": "view",
      "type": "function"
    },
    {
      "inputs": [
        {
          "internalType": "address",
          "name": "user",
          "type": "address"
        },
        {
          "internalType": "uint256",
          "name": "clubId",
          "type": "uint256"
        }
      ],
      "name": "isMember",
      "outputs": [
        {
          "internalType": "bool",
          "name": "",
          "type": "bool"
        }
      ],
      "stateMutability": "view",
      "type": "function"
    },
    {
      "inputs": [
        {
          "internalType": "uint256",
          "name": "clubId",
          "type": "uint256"
        }
      ],
      "name": "isValidClubId",
      "outputs": [
        {
          "internalType": "bool",
          "name": "",
          "type": "bool"
        }
      ],
      "stateMutability": "view",
      "type": "function"
    },
    {
      "inputs": [
        {
          "internalType": "uint256",
          "name": "clubId",
          "type": "uint256"
        }
      ],
      "name": "joinClub",
      "outputs": [],
      "stateMutability": "nonpayable",
      "type": "function"
    },
    {
      "inputs": [
        {
          "internalType": "uint256",
          "name": "clubId",
          "type": "uint256"
        }
      ],
      "name": "leaveClub",
      "outputs": [],
      "stateMutability": "nonpayable",
      "type": "function"
    },
    {
      "inputs": [
        {
          "internalType": "address",
          "name": "user",
          "type": "address"
        },
        {
          "internalType": "uint256",
          "name": "clubId",
          "type": "uint256"
        }
      ],
      "name": "rejectMembership",
      "outputs": [],
      "stateMutability": "nonpayable",
      "type": "function"
    },
    {
      "inputs": [
        {
          "internalType": "address",
          "name": "user",
          "type": "address"
        },
        {
          "internalType": "uint256",
          "name": "clubId",
          "type": "uint256"
        }
      ],
      "name": "revokeMembership",
      "outputs": [],
      "stateMutability": "nonpayable",
      "type": "function"
    }
  ],
  "transactionHash": "0xbcba927141a6d447bf8cff52b7151b842cac22e36ad2fb7ea853c5703d5b4eb4",
  "args": [
    "0xB690155751f50E6edbA8AEAE0b10C3350487cFEf"
  ],
  "numDeployments": 1,
  "solcInputHash": "308e69f9cfa940d6b48d2414d3d961df",
  "bytecode": "0x60a06040523480156200001157600080fd5b50604051620029ff380380620029ff833981016040819052620000349162000046565b6001600160a01b031660805262000078565b6000602082840312156200005957600080fd5b81516001600160a01b03811681146200007157600080fd5b9392505050565b60805161291e620000e16000396000818161049701528181610802015281816108c00152818161095e01528181610c0e01528181610cac01528181611198015281816112360152818161158b0152818161193f01528181611b240152611bc2015261291e6000f3fe608060405234801561001057600080fd5b506004361061012b5760003560e01c806396002bbe116100ad578063e154274211610071578063e1542742146102d2578063ead6eec2146102e5578063f13c5cc214610305578063fb7bacea14610318578063fc4191f81461032b57600080fd5b806396002bbe146102485780639a366c7b14610276578063ad9fdac014610289578063afb110461461029c578063dcb97ad8146102bf57600080fd5b80634d7f75c3116100f45780634d7f75c3146101dc5780634f3a2b76146101ef57806357d531d51461020257806385752d031461022257806388d3518b1461023557600080fd5b80623e75c61461013057806321c19fe2146101595780632ee48029146101845780634559dd51146101a75780634b75e3ad146101c7575b600080fd5b61014361013e366004612183565b610341565b60405161015091906121af565b60405180910390f35b61016c610167366004612207565b61048b565b6040516001600160a01b039091168152602001610150565b610197610192366004612207565b61058b565b6040519015158152602001610150565b6101ba6101b5366004612220565b6105c1565b6040516101509190612288565b6101da6101d536600461231c565b6108b5565b005b6101da6101ea366004612207565b610b36565b6101da6101fd36600461231c565b610c03565b610215610210366004612220565b610e15565b60405161015091906123a2565b61019761023036600461231c565b611118565b6101da61024336600461231c565b61118d565b610268610256366004612404565b600b6020526000908152604090205481565b604051908152602001610150565b610143610284366004612183565b611396565b610268610297366004612207565b61149e565b6102af6102aa366004612207565b6114b2565b6040516101509493929190612421565b6102686102cd366004612207565b61156d565b6101da6102e0366004612207565b611581565b6102f86102f3366004612207565b611744565b6040516101509190612456565b6101da61031336600461247f565b611935565b61019761032636600461231c565b611b17565b610197610339366004612207565b600054101590565b6000838152600a60205260408120546060919081906103639086908690611cd0565b909250905060006103748284612546565b905060018110156103c75760408051600080825260208201909252906103bc565b60408051808201909152600080825260208201528152602001906001900390816103955790505b509350505050610484565b60008167ffffffffffffffff8111156103e2576103e2612469565b60405190808252806020026020018201604052801561042757816020015b60408051808201909152600080825260208201528152602001906001900390816104005790505b5090506000610437600184612546565b9050835b8581101561047b5761044f6006828c611d74565b83838151811061046157610461612559565b60209081029190910101526000199091019060010161043b565b50909450505050505b9392505050565b60006001600160a01b037f000000000000000000000000000000000000000000000000000000000000000016635ae4223d336040516001600160e01b031960e084901b1681526001600160a01b039091166004820152602401602060405180830381865afa158015610501573d6000803e3d6000fd5b505050506040513d601f19601f82011682018060405250810190610525919061256f565b61054a5760405162461bcd60e51b815260040161054190612591565b60405180910390fd5b60005482111561056c5760405162461bcd60e51b8152600401610541906125d8565b506000908152600c60205260409020600201546001600160a01b031690565b600080548211156105ae5760405162461bcd60e51b8152600401610541906125d8565b60006105ba3384611df4565b1192915050565b60606000806105d985856105d460005490565b611e02565b909250905060006105ea8284612546565b9050600181101561065657604080516000808252602082019092529061064b565b6106386040518060600160405280600081526020016060815260200160006001600160a01b031681525090565b81526020019060019003908161060b5790505b5093505050506108af565b60008167ffffffffffffffff81111561067157610671612469565b6040519080825280602002602001820160405280156106cf57816020015b6106bc6040518060600160405280600081526020016060815260200160006001600160a01b031681525090565b81526020019060019003908161068f5790505b50905060006106df600184612546565b9050835b858110156108a6576000600c60008381526020019081526020016000206040518060800160405290816000820154815260200160018201805461072590612601565b80601f016020809104026020016040519081016040528092919081815260200182805461075190612601565b801561079e5780601f106107735761010080835404028352916020019161079e565b820191906000526020600020905b81548152906001019060200180831161078157829003601f168201915b505050918352505060028201546001600160a01b039081166020808401919091526003909301546040928301528151606081018352845181528484015193810193909352835182516226ad7d60e91b815260048101919091529394509192908301917f00000000000000000000000000000000000000000000000000000000000000001690634d5afa0090602401602060405180830381865afa158015610849573d6000803e3d6000fd5b505050506040513d601f19601f8201168201806040525081019061086d919061263b565b6001600160a01b031681525084848151811061088b5761088b612559565b602090810291909101015250600019909101906001016106e3565b50909450505050505b92915050565b806001600160a01b037f000000000000000000000000000000000000000000000000000000000000000016635ae4223d336040516001600160e01b031960e084901b1681526001600160a01b039091166004820152602401602060405180830381865afa15801561092a573d6000803e3d6000fd5b505050506040513d601f19601f8201168201806040525081019061094e919061256f565b806109f357506001600160a01b037f00000000000000000000000000000000000000000000000000000000000000001663e3e7ecca336040516001600160e01b031960e084901b1681526001600160a01b03909116600482015260248101849052604401602060405180830381865afa1580156109cf573d6000803e3d6000fd5b505050506040513d601f19601f820116820180604052508101906109f3919061256f565b610a0f5760405162461bcd60e51b815260040161054190612658565b6001600160a01b038316610a355760405162461bcd60e51b81526004016105419061268f565b600054821115610a575760405162461bcd60e51b8152600401610541906125d8565b6000610a638484611df4565b11610a805760405162461bcd60e51b8152600401610541906126b8565b610a8a8383611e18565b15610ae35760405162461bcd60e51b8152602060048201526024808201527f5573657220697320616c72656164792061206d656d62657220696e207468652060448201526331b63ab160e11b6064820152608401610541565b610aef60018484611e26565b610afb60068484611f0f565b60405182906001600160a01b038516907f6f9b27931ec4a2c537cf385aab0ce63b621c36db4901d2be3aa47517b8039b4290600090a3505050565b600054811115610b585760405162461bcd60e51b8152600401610541906125d8565b6000610b643383611e18565b11610bb15760405162461bcd60e51b815260206004820152601e60248201527f55736572206973206e6f74206d656d62657220696e2074686520636c756200006044820152606401610541565b610bbd60013383611f0f565b7fe971ddfb54f90da964b2158310d8ab7779b65798c8c8b06cbb53f4922c6992ae33604080516001600160a01b039092168252602082018490520160405180910390a150565b806001600160a01b037f000000000000000000000000000000000000000000000000000000000000000016635ae4223d336040516001600160e01b031960e084901b1681526001600160a01b039091166004820152602401602060405180830381865afa158015610c78573d6000803e3d6000fd5b505050506040513d601f19601f82011682018060405250810190610c9c919061256f565b80610d4157506001600160a01b037f00000000000000000000000000000000000000000000000000000000000000001663e3e7ecca336040516001600160e01b031960e084901b1681526001600160a01b03909116600482015260248101849052604401602060405180830381865afa158015610d1d573d6000803e3d6000fd5b505050506040513d601f19601f82011682018060405250810190610d41919061256f565b610d5d5760405162461bcd60e51b815260040161054190612658565b6001600160a01b038316610d835760405162461bcd60e51b81526004016105419061268f565b600054821115610da55760405162461bcd60e51b8152600401610541906125d8565b6000610db18484611df4565b11610dce5760405162461bcd60e51b8152600401610541906126b8565b610dda60068484611f0f565b60405182906001600160a01b038516907f4f78daf20bdbd747be24789e39aa0af59d21878853845f0e7dcf4dd669704bbf90600090a3505050565b6060600082118015610e28575060648211155b610e745760405162461bcd60e51b815260206004820152601960248201527f496e76616c696420706167652073697a65206e756d62657221000000000000006044820152606401610541565b60008311610ebb5760405162461bcd60e51b8152602060048201526014602482015273496e76616c69642070616765206e756d6265722160601b6044820152606401610541565b600080610ecc85856105d460005490565b90925090506000610edd8284612546565b90506001811015610f2357604080516000808252602082019092529061064b565b610f06612144565b815260200190600190039081610efe5790505093505050506108af565b3360008267ffffffffffffffff811115610f3f57610f3f612469565b604051908082528060200260200182016040528015610f7857816020015b610f65612144565b815260200190600190039081610f5d5790505b5090506000610f88600185612546565b9050845b8681101561110a576000600c600083815260200190815260200160002060405180608001604052908160008201548152602001600182018054610fce90612601565b80601f0160208091040260200160405190810160405280929190818152602001828054610ffa90612601565b80156110475780601f1061101c57610100808354040283529160200191611047565b820191906000526020600020905b81548152906001019060200180831161102a57829003601f168201915b505050918352505060028201546001600160a01b031660208201526003909101546040909101528051909150600090611081908790611e18565b90506000611093878460000151611df4565b90506040518060c00160405280846000015181526020018460200151815260200184604001516001600160a01b0316815260200184606001518152602001838152602001828152508686815181106110ed576110ed612559565b602090810291909101015250506000199092019150600101610f8c565b509098975050505050505050565b60006001600160a01b0383166111405760405162461bcd60e51b81526004016105419061268f565b6000548211156111625760405162461bcd60e51b8152600401610541906125d8565b6001600160a01b03831660009081526002602090815260408083208584529091529020541515610484565b806001600160a01b037f000000000000000000000000000000000000000000000000000000000000000016635ae4223d336040516001600160e01b031960e084901b1681526001600160a01b039091166004820152602401602060405180830381865afa158015611202573d6000803e3d6000fd5b505050506040513d601f19601f82011682018060405250810190611226919061256f565b806112cb57506001600160a01b037f00000000000000000000000000000000000000000000000000000000000000001663e3e7ecca336040516001600160e01b031960e084901b1681526001600160a01b03909116600482015260248101849052604401602060405180830381865afa1580156112a7573d6000803e3d6000fd5b505050506040513d601f19601f820116820180604052508101906112cb919061256f565b6112e75760405162461bcd60e51b815260040161054190612658565b6001600160a01b03831661130d5760405162461bcd60e51b81526004016105419061268f565b60005482111561132f5760405162461bcd60e51b8152600401610541906125d8565b600061133d600185856120a6565b1161138a5760405162461bcd60e51b815260206004820152601e60248201527f55736572206973206e6f74206d656d62657220696e2074686520636c756200006044820152606401610541565b610dda60018484611f0f565b6000838152600560205260408120546060919081906113b89086908690611cd0565b909250905060006113c98284612546565b905060018110156113ea5760408051600080825260208201909252906103bc565b60008167ffffffffffffffff81111561140557611405612469565b60405190808252806020026020018201604052801561144a57816020015b60408051808201909152600080825260208201528152602001906001900390816114235790505b509050600061145a600184612546565b9050835b8581101561047b576114726001828c611d74565b83838151811061148457611484612559565b60209081029190910101526000199091019060010161145e565b6000818152600560205260408120546108af565b600c60205260009081526040902080546001820180549192916114d490612601565b80601f016020809104026020016040519081016040528092919081815260200182805461150090612601565b801561154d5780601f106115225761010080835404028352916020019161154d565b820191906000526020600020905b81548152906001019060200180831161153057829003601f168201915b50505050600283015460039093015491926001600160a01b031691905084565b6000818152600a60205260408120546108af565b6001600160a01b037f00000000000000000000000000000000000000000000000000000000000000001663cb510e97336040516001600160e01b031960e084901b1681526001600160a01b039091166004820152602401602060405180830381865afa1580156115f5573d6000803e3d6000fd5b505050506040513d601f19601f82011682018060405250810190611619919061256f565b156116705760405162461bcd60e51b815260206004820152602160248201527f526f6c65733a2063616c6c6572206d757374206e6f74206265206120737461666044820152603360f91b6064820152608401610541565b6000548111156116925760405162461bcd60e51b8152600401610541906125d8565b61169c3382611e18565b156116e15760405162461bcd60e51b81526020600482015260156024820152742ab9b2b91030b63932b0b23c90309036b2b6b132b960591b6044820152606401610541565b6116eb3382611df4565b156117085760405162461bcd60e51b8152600401610541906126f9565b61171460063383611e26565b604051819033907fb6182f67d466f39bf82aad7780345123ff239d44544bbe5f576f9115d58811b790600090a350565b61174c612144565b60005482111561176e5760405162461bcd60e51b8152600401610541906125d8565b6000600c6000848152602001908152602001600020604051806080016040529081600082015481526020016001820180546117a890612601565b80601f01602080910402602001604051908101604052809291908181526020018280546117d490612601565b80156118215780601f106117f657610100808354040283529160200191611821565b820191906000526020600020905b81548152906001019060200180831161180457829003601f168201915b505050918352505060028201546001600160a01b0316602082015260039091015460409091015290506000339050600061185f8284600001516120d3565b8351604080518082018252600080825260208083018290528351808501855282815281018290526001600160a01b0380891683526007825284832086845282528483205460068352858420908452825284832085518087019096528054909116855260010154908401529394506118da928692909190610484565b90506040518060c00160405280856000015181526020018560200151815260200185604001516001600160a01b0316815260200185606001518152602001836020015181526020018260200151815250945050505050919050565b6001600160a01b037f000000000000000000000000000000000000000000000000000000000000000016635ae4223d336040516001600160e01b031960e084901b1681526001600160a01b039091166004820152602401602060405180830381865afa1580156119a9573d6000803e3d6000fd5b505050506040513d601f19601f820116820180604052508101906119cd919061256f565b6119e95760405162461bcd60e51b815260040161054190612591565b60006119f3825190565b9050600381118015611a05575080602c115b611a455760405162461bcd60e51b8152602060048201526011602482015270496e76616c696420636c7562206e616d6560781b6044820152606401610541565b60008054600181019091556040518060800160405280828152602001848152602001611a6e3390565b6001600160a01b03168152426020918201526000838152600c82526040902082518155908201516001820190611aa4908261278c565b5060408201516002820180546001600160a01b0319166001600160a01b039092169190911790556060909101516003909101557ffd380fe2044f380881ad92f291286fc420e0d0158d39f7e52f78a468b2d5ad8c818433604051611b0a9392919061284c565b60405180910390a1505050565b6000816001600160a01b037f000000000000000000000000000000000000000000000000000000000000000016635ae4223d336040516001600160e01b031960e084901b1681526001600160a01b039091166004820152602401602060405180830381865afa158015611b8e573d6000803e3d6000fd5b505050506040513d601f19601f82011682018060405250810190611bb2919061256f565b80611c5757506001600160a01b037f00000000000000000000000000000000000000000000000000000000000000001663e3e7ecca336040516001600160e01b031960e084901b1681526001600160a01b03909116600482015260248101849052604401602060405180830381865afa158015611c33573d6000803e3d6000fd5b505050506040513d601f19601f82011682018060405250810190611c57919061256f565b611c735760405162461bcd60e51b815260040161054190612658565b6001600160a01b038416611c995760405162461bcd60e51b81526004016105419061268f565b600054831115611cbb5760405162461bcd60e51b8152600401610541906125d8565b6000611cc78585611df4565b11949350505050565b6000806001831015611ce757506000905080611d6c565b6000611cf38585612893565b9050611cff85856128a7565b15611d08576001015b80861115611d1d576000809250925050611d6c565b6000808587611d2d60018b612546565b611d3791906128bb565b1015611d4c5786600189030286039150611d50565b8591505b86821115611d6557611d628783612546565b90505b9093509150505b935093915050565b604080518082019091526000808252602082015260008281526004850160205260408120805485908110611daa57611daa612559565b6000918252602080832090910154858352878252604080842091845290825291829020825180840190935280546001600160a01b0316835260010154908201529150509392505050565b6000610484600684846120a6565b60008082600003611ce757506000905080611d6c565b6000610484600184846120a6565b6001600160a01b0382166000908152600184016020908152604080832084845290915290205415611e695760405162461bcd60e51b8152600401610541906126f9565b600081815260038401602090815260408083208054600190810191829055600488018452828520805483875260028a0186528487208190558083018255908652848620018290556001600160a01b039687168086528189018552838620878752855283862083905583518085018552908152428186019081529686529784528285209185529252909120935184546001600160a01b031916931692909217835551910155565b6001600160a01b0382166000908152600184016020908152604080832084845290915281205490819003611f855760405162461bcd60e51b815260206004820152601c60248201527f4d656d6265727368697020686173206e6f7420726571756573746564000000006044820152606401610541565b600082815260208581526040808320848452825280832080546001600160a01b031916815560019081018490556001600160a01b038716845280880183528184208685528352818420849055848452600288018352818420548685526004890190935290832080549293929091611ffb91612546565b8154811061200b5761200b612559565b6000918252602080832090910154808352600289018252604080842086905586845280842084905587845260048a019092529120805491925082918490811061205657612056612559565b9060005260206000200181905550856004016000858152602001908152602001600020805480612088576120886128d2565b60019003818190600052602060002001600090559055505050505050565b6001600160a01b038216600090815260018401602090815260408083208484529091529020549392505050565b604080518082018252600080825260208083018290528351808501855282815281018290526001600160a01b03808716835260028252848320868452825284832054600180845286852091855290835292859020855180870190965280549091168552909101549083015290610484565b6040518060c00160405280600081526020016060815260200160006001600160a01b031681526020016000815260200160008152602001600081525090565b60008060006060848603121561219857600080fd5b505081359360208301359350604090920135919050565b602080825282518282018190526000919060409081850190868401855b828110156121fa57815180516001600160a01b031685528601518685015292840192908501906001016121cc565b5091979650505050505050565b60006020828403121561221957600080fd5b5035919050565b6000806040838503121561223357600080fd5b50508035926020909101359150565b6000815180845260005b818110156122685760208185018101518683018201520161224c565b506000602082860101526020601f19601f83011685010191505092915050565b60006020808301818452808551808352604092508286019150828160051b87010184880160005b8381101561110a57603f19898403018552815160608151855288820151818a8701526122dd82870182612242565b928901516001600160a01b03169589019590955250948701949250908601906001016122af565b6001600160a01b038116811461231957600080fd5b50565b6000806040838503121561232f57600080fd5b823561233a81612304565b946020939093013593505050565b805182526000602082015160c0602085015261236760c0850182612242565b6040848101516001600160a01b031690860152606080850151908601526080808501519086015260a093840151949093019390935250919050565b6000602080830181845280855180835260408601915060408160051b870101925083870160005b828110156123f757603f198886030184526123e5858351612348565b945092850192908501906001016123c9565b5092979650505050505050565b60006020828403121561241657600080fd5b813561048481612304565b84815260806020820152600061243a6080830186612242565b6001600160a01b03949094166040830152506060015292915050565b6020815260006104846020830184612348565b634e487b7160e01b600052604160045260246000fd5b60006020828403121561249157600080fd5b813567ffffffffffffffff808211156124a957600080fd5b818401915084601f8301126124bd57600080fd5b8135818111156124cf576124cf612469565b604051601f8201601f19908116603f011681019083821181831017156124f7576124f7612469565b8160405282815287602084870101111561251057600080fd5b826020860160208301376000928101602001929092525095945050505050565b634e487b7160e01b600052601160045260246000fd5b818103818111156108af576108af612530565b634e487b7160e01b600052603260045260246000fd5b60006020828403121561258157600080fd5b8151801515811461048457600080fd5b60208082526027908201527f526f6c65733a2063616c6c6572206973206e6f742061646d696e206f72206d6f6040820152663232b930ba37b960c91b606082015260800190565b6020808252600f908201526e125b9d985b1a590818db1d58881251608a1b604082015260600190565b600181811c9082168061261557607f821691505b60208210810361263557634e487b7160e01b600052602260045260246000fd5b50919050565b60006020828403121561264d57600080fd5b815161048481612304565b6020808252601c908201527f526f6c65733a2063616c6c6572206973206e6f74206120737461666600000000604082015260600190565b6020808252600f908201526e496e76616c6964206164647265737360881b604082015260600190565b60208082526021908201527f5573657220686173206e6f7420726571756573746564206d656d6265727368696040820152600760fc1b606082015260800190565b60208082526024908201527f4d656d62657273686970207265717565737420616c7265616479207375626d696040820152631d1d195960e21b606082015260800190565b601f82111561278757600081815260208120601f850160051c810160208610156127645750805b601f850160051c820191505b8181101561278357828155600101612770565b5050505b505050565b815167ffffffffffffffff8111156127a6576127a6612469565b6127ba816127b48454612601565b8461273d565b602080601f8311600181146127ef57600084156127d75750858301515b600019600386901b1c1916600185901b178555612783565b600085815260208120601f198616915b8281101561281e578886015182559484019460019091019084016127ff565b508582101561283c5787850151600019600388901b60f8161c191681555b5050505050600190811b01905550565b8381526060602082015260006128656060830185612242565b905060018060a01b0383166040830152949350505050565b634e487b7160e01b600052601260045260246000fd5b6000826128a2576128a261287d565b500490565b6000826128b6576128b661287d565b500690565b80820281158282048414176108af576108af612530565b634e487b7160e01b600052603160045260246000fdfea2646970667358221220dd1ca7c5e2827b6fd2ff41ba018552dd54d251b10074700d1e17a4f92e4122a064736f6c63430008110033",
  "devdoc": {
    "kind": "dev",
    "methods": {},
    "version": 1
  },
  "userdoc": {
    "kind": "user",
    "methods": {},
    "version": 1
  },
  "storageLayout": {
    "storage": [
      {
        "astId": 2508,
        "contract": "contracts/Club.sol:Club",
        "label": "_clubIds",
        "offset": 0,
        "slot": "0",
        "type": "t_struct(Counter)574_storage"
      },
      {
        "astId": 2515,
        "contract": "contracts/Club.sol:Club",
        "label": "_members",
        "offset": 0,
        "slot": "1",
        "type": "t_struct(MemberData)6032_storage"
      },
      {
        "astId": 2518,
        "contract": "contracts/Club.sol:Club",
        "label": "_membershipRequests",
        "offset": 0,
        "slot": "6",
        "type": "t_struct(MemberData)6032_storage"
      },
      {
        "astId": 2524,
        "contract": "contracts/Club.sol:Club",
        "label": "csToClub",
        "offset": 0,
        "slot": "11",
        "type": "t_mapping(t_address,t_uint256)"
      },
      {
        "astId": 2576,
        "contract": "contracts/Club.sol:Club",
        "label": "_clubs",
        "offset": 0,
        "slot": "12",
        "type": "t_mapping(t_uint256,t_struct(ClubDetails)2551_storage)"
      }
    ],
    "types": {
      "t_address": {
        "encoding": "inplace",
        "label": "address",
        "numberOfBytes": "20"
      },
      "t_array(t_uint256)dyn_storage": {
        "base": "t_uint256",
        "encoding": "dynamic_array",
        "label": "uint256[]",
        "numberOfBytes": "32"
      },
      "t_mapping(t_address,t_mapping(t_uint256,t_uint256))": {
        "encoding": "mapping",
        "key": "t_address",
        "label": "mapping(address => mapping(uint256 => uint256))",
        "numberOfBytes": "32",
        "value": "t_mapping(t_uint256,t_uint256)"
      },
      "t_mapping(t_address,t_uint256)": {
        "encoding": "mapping",
        "key": "t_address",
        "label": "mapping(address => uint256)",
        "numberOfBytes": "32",
        "value": "t_uint256"
      },
      "t_mapping(t_uint256,t_array(t_uint256)dyn_storage)": {
        "encoding": "mapping",
        "key": "t_uint256",
        "label": "mapping(uint256 => uint256[])",
        "numberOfBytes": "32",
        "value": "t_array(t_uint256)dyn_storage"
      },
      "t_mapping(t_uint256,t_mapping(t_uint256,t_struct(MemberRecord)6341_storage))": {
        "encoding": "mapping",
        "key": "t_uint256",
        "label": "mapping(uint256 => mapping(uint256 => struct MemberRecord))",
        "numberOfBytes": "32",
        "value": "t_mapping(t_uint256,t_struct(MemberRecord)6341_storage)"
      },
      "t_mapping(t_uint256,t_struct(ClubDetails)2551_storage)": {
        "encoding": "mapping",
        "key": "t_uint256",
        "label": "mapping(uint256 => struct Club.ClubDetails)",
        "numberOfBytes": "32",
        "value": "t_struct(ClubDetails)2551_storage"
      },
      "t_mapping(t_uint256,t_struct(Counter)574_storage)": {
        "encoding": "mapping",
        "key": "t_uint256",
        "label": "mapping(uint256 => struct Counters.Counter)",
        "numberOfBytes": "32",
        "value": "t_struct(Counter)574_storage"
      },
      "t_mapping(t_uint256,t_struct(MemberRecord)6341_storage)": {
        "encoding": "mapping",
        "key": "t_uint256",
        "label": "mapping(uint256 => struct MemberRecord)",
        "numberOfBytes": "32",
        "value": "t_struct(MemberRecord)6341_storage"
      },
      "t_mapping(t_uint256,t_uint256)": {
        "encoding": "mapping",
        "key": "t_uint256",
        "label": "mapping(uint256 => uint256)",
        "numberOfBytes": "32",
        "value": "t_uint256"
      },
      "t_string_storage": {
        "encoding": "bytes",
        "label": "string",
        "numberOfBytes": "32"
      },
      "t_struct(ClubDetails)2551_storage": {
        "encoding": "inplace",
        "label": "struct Club.ClubDetails",
        "members": [
          {
            "astId": 2544,
            "contract": "contracts/Club.sol:Club",
            "label": "id",
            "offset": 0,
            "slot": "0",
            "type": "t_uint256"
          },
          {
            "astId": 2546,
            "contract": "contracts/Club.sol:Club",
            "label": "name",
            "offset": 0,
            "slot": "1",
            "type": "t_string_storage"
          },
          {
            "astId": 2548,
            "contract": "contracts/Club.sol:Club",
            "label": "creator",
            "offset": 0,
            "slot": "2",
            "type": "t_address"
          },
          {
            "astId": 2550,
            "contract": "contracts/Club.sol:Club",
            "label": "createdOn",
            "offset": 0,
            "slot": "3",
            "type": "t_uint256"
          }
        ],
        "numberOfBytes": "128"
      },
      "t_struct(Counter)574_storage": {
        "encoding": "inplace",
        "label": "struct Counters.Counter",
        "members": [
          {
            "astId": 573,
            "contract": "contracts/Club.sol:Club",
            "label": "_value",
            "offset": 0,
            "slot": "0",
            "type": "t_uint256"
          }
        ],
        "numberOfBytes": "32"
      },
      "t_struct(MemberData)6032_storage": {
        "encoding": "inplace",
        "label": "struct MemberManager.MemberData",
        "members": [
          {
            "astId": 6011,
            "contract": "contracts/Club.sol:Club",
            "label": "members",
            "offset": 0,
            "slot": "0",
            "type": "t_mapping(t_uint256,t_mapping(t_uint256,t_struct(MemberRecord)6341_storage))"
          },
          {
            "astId": 6017,
            "contract": "contracts/Club.sol:Club",
            "label": "indexByAddress",
            "offset": 0,
            "slot": "1",
            "type": "t_mapping(t_address,t_mapping(t_uint256,t_uint256))"
          },
          {
            "astId": 6021,
            "contract": "contracts/Club.sol:Club",
            "label": "indexOf",
            "offset": 0,
            "slot": "2",
            "type": "t_mapping(t_uint256,t_uint256)"
          },
          {
            "astId": 6026,
            "contract": "contracts/Club.sol:Club",
            "label": "memberIds",
            "offset": 0,
            "slot": "3",
            "type": "t_mapping(t_uint256,t_struct(Counter)574_storage)"
          },
          {
            "astId": 6031,
            "contract": "contracts/Club.sol:Club",
            "label": "keys",
            "offset": 0,
            "slot": "4",
            "type": "t_mapping(t_uint256,t_array(t_uint256)dyn_storage)"
          }
        ],
        "numberOfBytes": "160"
      },
      "t_struct(MemberRecord)6341_storage": {
        "encoding": "inplace",
        "label": "struct MemberRecord",
        "members": [
          {
            "astId": 6338,
            "contract": "contracts/Club.sol:Club",
            "label": "member",
            "offset": 0,
            "slot": "0",
            "type": "t_address"
          },
          {
            "astId": 6340,
            "contract": "contracts/Club.sol:Club",
            "label": "ceatedAt",
            "offset": 0,
            "slot": "1",
            "type": "t_uint256"
          }
        ],
        "numberOfBytes": "64"
      },
      "t_uint256": {
        "encoding": "inplace",
        "label": "uint256",
        "numberOfBytes": "32"
      }
    }
  }
}