{
  "address": "0x4E193d8de2e794b244B85Df6c5d2434A2f42B2EE",
  "abi": [
    {
      "inputs": [
        {
          "internalType": "address",
          "name": "rolesContract",
          "type": "address"
        },
        {
          "internalType": "address",
          "name": "clubAddress",
          "type": "address"
        }
      ],
      "stateMutability": "nonpayable",
      "type": "constructor"
    },
    {
      "anonymous": false,
      "inputs": [
        {
          "indexed": false,
          "internalType": "uint256",
          "name": "id",
          "type": "uint256"
        },
        {
          "indexed": false,
          "internalType": "uint256",
          "name": "clubId",
          "type": "uint256"
        },
        {
          "indexed": false,
          "internalType": "address",
          "name": "creator",
          "type": "address"
        }
      ],
      "name": "ProposalCreated",
      "type": "event"
    },
    {
      "anonymous": false,
      "inputs": [
        {
          "indexed": false,
          "internalType": "uint256",
          "name": "proposalId",
          "type": "uint256"
        },
        {
          "indexed": false,
          "internalType": "enum Proposal.Status",
          "name": "status",
          "type": "uint8"
        },
        {
          "indexed": false,
          "internalType": "uint256",
          "name": "endTime",
          "type": "uint256"
        }
      ],
      "name": "ProposalEnded",
      "type": "event"
    },
    {
      "anonymous": false,
      "inputs": [
        {
          "indexed": false,
          "internalType": "uint256",
          "name": "proposalId",
          "type": "uint256"
        },
        {
          "indexed": false,
          "internalType": "address",
          "name": "voter",
          "type": "address"
        },
        {
          "indexed": false,
          "internalType": "uint256",
          "name": "choiceIndex",
          "type": "uint256"
        }
      ],
      "name": "Voted",
      "type": "event"
    },
    {
      "anonymous": false,
      "inputs": [
        {
          "indexed": false,
          "internalType": "uint256",
          "name": "proposalId",
          "type": "uint256"
        },
        {
          "indexed": false,
          "internalType": "uint256",
          "name": "startTime",
          "type": "uint256"
        },
        {
          "indexed": false,
          "internalType": "uint256",
          "name": "endTime",
          "type": "uint256"
        }
      ],
      "name": "VotingStarted",
      "type": "event"
    },
    {
      "inputs": [
        {
          "internalType": "address",
          "name": "account",
          "type": "address"
        },
        {
          "internalType": "uint256",
          "name": "proposalId",
          "type": "uint256"
        },
        {
          "internalType": "uint256",
          "name": "clubId",
          "type": "uint256"
        }
      ],
      "name": "canVote",
      "outputs": [
        {
          "internalType": "bool",
          "name": "",
          "type": "bool"
        }
      ],
      "stateMutability": "view",
      "type": "function"
    },
    {
      "inputs": [
        {
          "internalType": "uint256",
          "name": "clubId",
          "type": "uint256"
        },
        {
          "internalType": "string",
          "name": "_title",
          "type": "string"
        },
        {
          "internalType": "string",
          "name": "_description",
          "type": "string"
        },
        {
          "internalType": "string[]",
          "name": "_choicesContent",
          "type": "string[]"
        }
      ],
      "name": "createProposal",
      "outputs": [],
      "stateMutability": "nonpayable",
      "type": "function"
    },
    {
      "inputs": [
        {
          "internalType": "uint256",
          "name": "proposalId",
          "type": "uint256"
        },
        {
          "internalType": "uint256",
          "name": "clubId",
          "type": "uint256"
        }
      ],
      "name": "endVoting",
      "outputs": [],
      "stateMutability": "nonpayable",
      "type": "function"
    },
    {
      "inputs": [
        {
          "internalType": "uint256",
          "name": "clubId",
          "type": "uint256"
        }
      ],
      "name": "getProposalCount",
      "outputs": [
        {
          "internalType": "uint256",
          "name": "",
          "type": "uint256"
        }
      ],
      "stateMutability": "view",
      "type": "function"
    },
    {
      "inputs": [
        {
          "internalType": "uint256",
          "name": "proposalId",
          "type": "uint256"
        },
        {
          "internalType": "uint256",
          "name": "clubId",
          "type": "uint256"
        }
      ],
      "name": "getProposalDetails",
      "outputs": [
        {
          "components": [
            {
              "internalType": "uint256",
              "name": "proposalId",
              "type": "uint256"
            },
            {
              "internalType": "address",
              "name": "creator",
              "type": "address"
            },
            {
              "internalType": "string",
              "name": "title",
              "type": "string"
            },
            {
              "internalType": "string",
              "name": "description",
              "type": "string"
            },
            {
              "components": [
                {
                  "internalType": "string",
                  "name": "description",
                  "type": "string"
                },
                {
                  "internalType": "uint8",
                  "name": "votes",
                  "type": "uint8"
                }
              ],
              "internalType": "struct Proposal.Choice[]",
              "name": "choices",
              "type": "tuple[]"
            },
            {
              "internalType": "enum Proposal.Status",
              "name": "status",
              "type": "uint8"
            },
            {
              "internalType": "uint256",
              "name": "votingStartTime",
              "type": "uint256"
            },
            {
              "internalType": "uint256",
              "name": "votingEndTime",
              "type": "uint256"
            }
          ],
          "internalType": "struct Proposal.ProposalPresnter",
          "name": "",
          "type": "tuple"
        }
      ],
      "stateMutability": "view",
      "type": "function"
    },
    {
      "inputs": [
        {
          "internalType": "uint256",
          "name": "clubId",
          "type": "uint256"
        },
        {
          "internalType": "uint256",
          "name": "page",
          "type": "uint256"
        },
        {
          "internalType": "uint256",
          "name": "pageSize",
          "type": "uint256"
        }
      ],
      "name": "getProposals",
      "outputs": [
        {
          "components": [
            {
              "internalType": "uint256",
              "name": "proposalId",
              "type": "uint256"
            },
            {
              "internalType": "address",
              "name": "creator",
              "type": "address"
            },
            {
              "internalType": "string",
              "name": "title",
              "type": "string"
            },
            {
              "internalType": "string",
              "name": "description",
              "type": "string"
            },
            {
              "components": [
                {
                  "internalType": "string",
                  "name": "description",
                  "type": "string"
                },
                {
                  "internalType": "uint8",
                  "name": "votes",
                  "type": "uint8"
                }
              ],
              "internalType": "struct Proposal.Choice[]",
              "name": "choices",
              "type": "tuple[]"
            },
            {
              "internalType": "enum Proposal.Status",
              "name": "status",
              "type": "uint8"
            },
            {
              "internalType": "uint256",
              "name": "votingStartTime",
              "type": "uint256"
            },
            {
              "internalType": "uint256",
              "name": "votingEndTime",
              "type": "uint256"
            }
          ],
          "internalType": "struct Proposal.ProposalPresnter[]",
          "name": "",
          "type": "tuple[]"
        }
      ],
      "stateMutability": "view",
      "type": "function"
    },
    {
      "inputs": [
        {
          "internalType": "uint256",
          "name": "proposalId",
          "type": "uint256"
        },
        {
          "internalType": "uint256",
          "name": "clubId",
          "type": "uint256"
        }
      ],
      "name": "hasUserVoted",
      "outputs": [
        {
          "internalType": "bool",
          "name": "",
          "type": "bool"
        }
      ],
      "stateMutability": "view",
      "type": "function"
    },
    {
      "inputs": [
        {
          "internalType": "uint256",
          "name": "proposalId",
          "type": "uint256"
        },
        {
          "internalType": "uint256",
          "name": "clubId",
          "type": "uint256"
        },
        {
          "internalType": "uint256",
          "name": "_votingStartTime",
          "type": "uint256"
        },
        {
          "internalType": "uint256",
          "name": "_votingEndTime",
          "type": "uint256"
        }
      ],
      "name": "startVotingSchedule",
      "outputs": [],
      "stateMutability": "nonpayable",
      "type": "function"
    },
    {
      "inputs": [
        {
          "internalType": "uint256",
          "name": "proposalId",
          "type": "uint256"
        },
        {
          "internalType": "uint256",
          "name": "clubId",
          "type": "uint256"
        },
        {
          "internalType": "uint256",
          "name": "duration",
          "type": "uint256"
        }
      ],
      "name": "startVotingTimer",
      "outputs": [],
      "stateMutability": "nonpayable",
      "type": "function"
    },
    {
      "inputs": [
        {
          "internalType": "uint256",
          "name": "proposalId",
          "type": "uint256"
        },
        {
          "internalType": "uint256",
          "name": "clubId",
          "type": "uint256"
        },
        {
          "internalType": "uint256",
          "name": "choiceIndex",
          "type": "uint256"
        }
      ],
      "name": "vote",
      "outputs": [],
      "stateMutability": "nonpayable",
      "type": "function"
    }
  ],
  "transactionHash": "0xbf5f512ff045120517864a9c9e54c05308d2c6d7f7aca5a0ef9d1a0c0551dda8",
  "args": [
    "0xB690155751f50E6edbA8AEAE0b10C3350487cFEf",
    "0x344A40a76Df40583e649592F75ED0232a8379af4"
  ],
  "numDeployments": 1,
  "solcInputHash": "5119cc793b526fa3851c92c0955b0649",
  "bytecode": "0x60c06040523480156200001157600080fd5b5060405162002c1938038062002c19833981016040819052620000349162000069565b6001600160a01b039182166080521660a052620000a1565b80516001600160a01b03811681146200006457600080fd5b919050565b600080604083850312156200007d57600080fd5b62000088836200004c565b915062000098602084016200004c565b90509250929050565b60805160a051612afe6200011b600039600081816102990152818161058501528181610bec01528181610dae01528181611154015281816112920152818161159d015281816117f501528181611b930152611d7a0152600081816101d001528181610adb015281816111d201526114dd0152612afe6000f3fe608060405234801561001057600080fd5b506004361061009e5760003560e01c80636c684391116100665780636c6843911461013857806388eeafac1461014b5780638a6655d61461015e578063968541341461017157806397decb3f146101a657600080fd5b80631404f2d1146100a35780632a2eaf31146100b85780634936c0f6146100e15780635767f36b14610102578063644f12f014610115575b600080fd5b6100b66100b13660046123da565b6101c6565b005b6100cb6100c63660046124f0565b6104c9565b6040516100d891906126a5565b60405180910390f35b6100f46100ef366004612707565b610abb565b6040519081526020016100d8565b6100b66101103660046124f0565b610ad1565b610128610123366004612720565b610d95565b60405190151581526020016100d8565b6100b6610146366004612761565b6111c8565b6100b6610159366004612793565b6114d3565b6100b661016c3660046124f0565b6117df565b61012861017f366004612793565b33600090815260208181526040808320938352928152828220938252929092529020541590565b6101b96101b4366004612793565b611d5c565b6040516100d891906127b5565b6001600160a01b037f000000000000000000000000000000000000000000000000000000000000000016635ae4223d336040516001600160e01b031960e084901b1681526001600160a01b039091166004820152602401602060405180830381865afa15801561023a573d6000803e3d6000fd5b505050506040513d601f19601f8201168201806040525081019061025e91906127c8565b6102835760405162461bcd60e51b815260040161027a906127ea565b60405180910390fd5b604051631f88323f60e31b8152600481018590527f00000000000000000000000000000000000000000000000000000000000000006001600160a01b03169063fc4191f890602401602060405180830381865afa1580156102e8573d6000803e3d6000fd5b505050506040513d601f19601f8201168201806040525081019061030c91906127c8565b6103285760405162461bcd60e51b815260040161027a90612831565b6001815111801561033b5750600a815111155b6103875760405162461bcd60e51b815260206004820152601960248201527f496e76616c6964206e756d626572206f662063686f6963657300000000000000604482015260640161027a565b600084815260026020908152604080832080546001808201909255818452828520818652909352922080546001600160a01b03191633178155909181016103ce86826128e3565b50600281016103dd85826128e3565b5060048101805460ff1916600117905560005b83518110156104765781600301604051806040016040528086848151811061041a5761041a6129a3565b6020908102919091018101518252600091810182905283546001810185559382529020815191926002020190819061045290826128e3565b50602091909101516001918201805460ff191660ff909216919091179055016103f0565b50805460408051848152602081018990526001600160a01b0390921682820152517f2e8c120bfdd294891f6ac45b1d661997690ad24bb51f51e4d357365f25c190239181900360600190a1505050505050565b60606000821180156104dc575060648211155b6105285760405162461bcd60e51b815260206004820152601960248201527f496e76616c696420706167652073697a65206e756d6265722100000000000000604482015260640161027a565b6000831161056f5760405162461bcd60e51b8152602060048201526014602482015273496e76616c69642070616765206e756d6265722160601b604482015260640161027a565b604051631f88323f60e31b8152600481018590527f00000000000000000000000000000000000000000000000000000000000000006001600160a01b03169063fc4191f890602401602060405180830381865afa1580156105d4573d6000803e3d6000fd5b505050506040513d601f19601f820116820180604052508101906105f891906127c8565b6106145760405162461bcd60e51b815260040161027a90612831565b6000806106228585886121d3565b9092509050600061063382846129cf565b9050600181101561067a57604080516000808252602082019092529061066f565b61065c6122c4565b8152602001906001900390816106545790505b509350505050610ab4565b60008167ffffffffffffffff81111561069557610695612323565b6040519080825280602002602001820160405280156106ce57816020015b6106bb6122c4565b8152602001906001900390816106b35790505b50905060006106de6001846129cf565b9050835b85811015610aab5760008a81526001602081815260408084208585528252808420815160e0810190925280546001600160a01b03168252928301805491939284019161072d9061285a565b80601f01602080910402602001604051908101604052809291908181526020018280546107599061285a565b80156107a65780601f1061077b576101008083540402835291602001916107a6565b820191906000526020600020905b81548152906001019060200180831161078957829003601f168201915b505050505081526020016002820180546107bf9061285a565b80601f01602080910402602001604051908101604052809291908181526020018280546107eb9061285a565b80156108385780601f1061080d57610100808354040283529160200191610838565b820191906000526020600020905b81548152906001019060200180831161081b57829003601f168201915b5050505050815260200160038201805480602002602001604051908101604052809291908181526020016000905b8282101561093757838290600052602060002090600202016040518060400160405290816000820180546108999061285a565b80601f01602080910402602001604051908101604052809291908181526020018280546108c59061285a565b80156109125780601f106108e757610100808354040283529160200191610912565b820191906000526020600020905b8154815290600101906020018083116108f557829003601f168201915b505050918352505060019182015460ff16602091820152918352929092019101610866565b5050509082525060048281015460209092019160ff169081111561095d5761095d6125d3565b600481111561096e5761096e6125d3565b815260058201546020820152600690910154604090910152608081015160a0820151919250904210156109a357506000610a11565b8160a0015142101580156109ba57508160c0015142105b80156109d7575060018160048111156109d5576109d56125d3565b145b156109e457506002610a11565b8160c0015142118015610a0857506002816004811115610a0657610a066125d3565b145b15610a11575060035b60405180610100016040528084815260200183600001516001600160a01b03168152602001836020015181526020018360400151815260200183606001518152602001826004811115610a6657610a666125d3565b81526020018360a0015181526020018360c00151815250858581518110610a8f57610a8f6129a3565b60209081029190910101525050600019909101906001016106e2565b50909450505050505b9392505050565b6000818152600260205260408120545b92915050565b6001600160a01b037f000000000000000000000000000000000000000000000000000000000000000016635ae4223d336040516001600160e01b031960e084901b1681526001600160a01b039091166004820152602401602060405180830381865afa158015610b45573d6000803e3d6000fd5b505050506040513d601f19601f82011682018060405250810190610b6991906127c8565b610b855760405162461bcd60e51b815260040161027a906127ea565b6101f48111610bd65760405162461bcd60e51b815260206004820152601960248201527f4475726174696f6e206d75737420626520706f73697469766500000000000000604482015260640161027a565b604051631f88323f60e31b8152600481018390527f00000000000000000000000000000000000000000000000000000000000000006001600160a01b03169063fc4191f890602401602060405180830381865afa158015610c3b573d6000803e3d6000fd5b505050506040513d601f19601f82011682018060405250810190610c5f91906127c8565b610c7b5760405162461bcd60e51b815260040161027a90612831565b600082815260026020526040902054831115610ca95760405162461bcd60e51b815260040161027a906129e2565b60008281526001602081815260408084208785529091529091209060048083015460ff1690811115610cdd57610cdd6125d3565b14610d2a5760405162461bcd60e51b815260206004820152601d60248201527f50726f706f73616c206e6f7420696e2070656e64696e67207374617465000000604482015260640161027a565b60048101805460ff191660021790554260058201819055828101600683018190556040805187815260208101939093528201819052907f79f4674ed037bbb3d5409860f08f43169a7aab59581ca8d1f2f97578dc944b91906060015b60405180910390a15050505050565b604051631f88323f60e31b8152600481018290526000907f00000000000000000000000000000000000000000000000000000000000000006001600160a01b03169063fc4191f890602401602060405180830381865afa158015610dfd573d6000803e3d6000fd5b505050506040513d601f19601f82011682018060405250810190610e2191906127c8565b610e3d5760405162461bcd60e51b815260040161027a90612831565b600082815260026020526040902054831115610e6b5760405162461bcd60e51b815260040161027a906129e2565b60008281526001602081815260408084208785528252808420815160e0810190925280546001600160a01b031682529283018054919392840191610eae9061285a565b80601f0160208091040260200160405190810160405280929190818152602001828054610eda9061285a565b8015610f275780601f10610efc57610100808354040283529160200191610f27565b820191906000526020600020905b815481529060010190602001808311610f0a57829003601f168201915b50505050508152602001600282018054610f409061285a565b80601f0160208091040260200160405190810160405280929190818152602001828054610f6c9061285a565b8015610fb95780601f10610f8e57610100808354040283529160200191610fb9565b820191906000526020600020905b815481529060010190602001808311610f9c57829003601f168201915b5050505050815260200160038201805480602002602001604051908101604052809291908181526020016000905b828210156110b8578382906000526020600020906002020160405180604001604052908160008201805461101a9061285a565b80601f01602080910402602001604051908101604052809291908181526020018280546110469061285a565b80156110935780601f1061106857610100808354040283529160200191611093565b820191906000526020600020905b81548152906001019060200180831161107657829003601f168201915b505050918352505060019182015460ff16602091820152918352929092019101610fe7565b5050509082525060048281015460209092019160ff16908111156110de576110de6125d3565b60048111156110ef576110ef6125d3565b815260200160058201548152602001600682015481525050905061111281612288565b61112e5760405162461bcd60e51b815260040161027a90612a0f565b6040516385752d0360e01b81526001600160a01b038681166004830152602482018590527f000000000000000000000000000000000000000000000000000000000000000016906385752d0390604401602060405180830381865afa15801561119b573d6000803e3d6000fd5b505050506040513d601f19601f820116820180604052508101906111bf91906127c8565b95945050505050565b6001600160a01b037f000000000000000000000000000000000000000000000000000000000000000016635ae4223d336040516001600160e01b031960e084901b1681526001600160a01b039091166004820152602401602060405180830381865afa15801561123c573d6000803e3d6000fd5b505050506040513d601f19601f8201168201806040525081019061126091906127c8565b61127c5760405162461bcd60e51b815260040161027a906127ea565b604051631f88323f60e31b8152600481018490527f00000000000000000000000000000000000000000000000000000000000000006001600160a01b03169063fc4191f890602401602060405180830381865afa1580156112e1573d6000803e3d6000fd5b505050506040513d601f19601f8201168201806040525081019061130591906127c8565b6113215760405162461bcd60e51b815260040161027a90612831565b600083815260026020526040902054841061134e5760405162461bcd60e51b815260040161027a906129e2565b4282101561139e5760405162461bcd60e51b815260206004820181905260248201527f53746172742074696d65206d75737420626520696e2074686520667574757265604482015260640161027a565b8181116113f75760405162461bcd60e51b815260206004820152602160248201527f456e642074696d65206d7573742062652061667465722073746172742074696d6044820152606560f81b606482015260840161027a565b60008381526001602081815260408084208885529091529091209060048083015460ff169081111561142b5761142b6125d3565b146114785760405162461bcd60e51b815260206004820152601d60248201527f50726f706f73616c206e6f7420696e2070656e64696e67207374617465000000604482015260640161027a565b60048101805460ff19166002179055600581018390556006810182905560408051868152602081018590529081018390527f79f4674ed037bbb3d5409860f08f43169a7aab59581ca8d1f2f97578dc944b9190606001610d86565b6001600160a01b037f000000000000000000000000000000000000000000000000000000000000000016635ae4223d336040516001600160e01b031960e084901b1681526001600160a01b039091166004820152602401602060405180830381865afa158015611547573d6000803e3d6000fd5b505050506040513d601f19601f8201168201806040525081019061156b91906127c8565b6115875760405162461bcd60e51b815260040161027a906127ea565b604051631f88323f60e31b8152600481018290527f00000000000000000000000000000000000000000000000000000000000000006001600160a01b03169063fc4191f890602401602060405180830381865afa1580156115ec573d6000803e3d6000fd5b505050506040513d601f19601f8201168201806040525081019061161091906127c8565b61162c5760405162461bcd60e51b815260040161027a90612831565b60008181526002602052604090205482106116595760405162461bcd60e51b815260040161027a906129e2565b60008181526001602090815260408083208584529091529020600260048083015460ff169081111561168d5761168d6125d3565b146116da5760405162461bcd60e51b815260206004820152601c60248201527f50726f706f73616c206e6f7420696e20766f74696e6720737461746500000000604482015260640161027a565b600060015b600383015481101561175957826003018281548110611700576117006129a3565b600091825260209091206001600290920201015460038401805460ff9092169183908110611730576117306129a3565b600091825260209091206001600290920201015460ff161115611751578091505b6001016116df565b506000811161176957600461176c565b60035b8260040160006101000a81548160ff02191690836004811115611791576117916125d3565b021790555060048201546040517fcb78e4ccc2345df65b108430adb94a39693defb0cf1a0954629912a60d29c323916117d191879160ff16904290612a51565b60405180910390a150505050565b604051631f88323f60e31b8152600481018390527f00000000000000000000000000000000000000000000000000000000000000006001600160a01b03169063fc4191f890602401602060405180830381865afa158015611844573d6000803e3d6000fd5b505050506040513d601f19601f8201168201806040525081019061186891906127c8565b6118845760405162461bcd60e51b815260040161027a90612831565b60008281526002602052604090205483106118b15760405162461bcd60e51b815260040161027a906129e2565b6000828152600160208181526040808420878552825292839020835160e0810190945280546001600160a01b0316845291820180549293611b5b9390928592908401916118fd9061285a565b80601f01602080910402602001604051908101604052809291908181526020018280546119299061285a565b80156119765780601f1061194b57610100808354040283529160200191611976565b820191906000526020600020905b81548152906001019060200180831161195957829003601f168201915b5050505050815260200160028201805461198f9061285a565b80601f01602080910402602001604051908101604052809291908181526020018280546119bb9061285a565b8015611a085780601f106119dd57610100808354040283529160200191611a08565b820191906000526020600020905b8154815290600101906020018083116119eb57829003601f168201915b5050505050815260200160038201805480602002602001604051908101604052809291908181526020016000905b82821015611b075783829060005260206000209060020201604051806040016040529081600082018054611a699061285a565b80601f0160208091040260200160405190810160405280929190818152602001828054611a959061285a565b8015611ae25780601f10611ab757610100808354040283529160200191611ae2565b820191906000526020600020905b815481529060010190602001808311611ac557829003601f168201915b505050918352505060019182015460ff16602091820152918352929092019101611a36565b5050509082525060048281015460209092019160ff1690811115611b2d57611b2d6125d3565b6004811115611b3e57611b3e6125d3565b815260200160058201548152602001600682015481525050612288565b611b775760405162461bcd60e51b815260040161027a90612a0f565b6040516385752d0360e01b8152336004820152602481018490527f00000000000000000000000000000000000000000000000000000000000000006001600160a01b0316906385752d0390604401602060405180830381865afa158015611be2573d6000803e3d6000fd5b505050506040513d601f19601f82011682018060405250810190611c0691906127c8565b611c525760405162461bcd60e51b815260206004820152601960248201527f4e6f742061206d656d626572206f66207468697320636c756200000000000000604482015260640161027a565b33600090815260208181526040808320868452825280832087845290915290205415611cc05760405162461bcd60e51b815260206004820152601e60248201527f416c726561647920766f746564206f6e20746869732070726f706f73616c0000604482015260640161027a565b806003018281548110611cd557611cd56129a3565b600091825260208083206002929092029091016001908101805460ff19811660ff9182169093011691909117905533808352828252604080842087855283528084208885528352928390204290558251878152918201529081018390527f1abe610cf2bf87e57dcc1181fcf5ac0934e843d8344ab9eed6e86c799f62585e906060016117d1565b611d646122c4565b604051631f88323f60e31b8152600481018390527f00000000000000000000000000000000000000000000000000000000000000006001600160a01b03169063fc4191f890602401602060405180830381865afa158015611dc9573d6000803e3d6000fd5b505050506040513d601f19601f82011682018060405250810190611ded91906127c8565b611e095760405162461bcd60e51b815260040161027a90612831565b6000828152600260205260409020548310611e365760405162461bcd60e51b815260040161027a906129e2565b60008281526001602081815260408084208785528252808420815160e0810190925280546001600160a01b031682529283018054919392840191611e799061285a565b80601f0160208091040260200160405190810160405280929190818152602001828054611ea59061285a565b8015611ef25780601f10611ec757610100808354040283529160200191611ef2565b820191906000526020600020905b815481529060010190602001808311611ed557829003601f168201915b50505050508152602001600282018054611f0b9061285a565b80601f0160208091040260200160405190810160405280929190818152602001828054611f379061285a565b8015611f845780601f10611f5957610100808354040283529160200191611f84565b820191906000526020600020905b815481529060010190602001808311611f6757829003601f168201915b5050505050815260200160038201805480602002602001604051908101604052809291908181526020016000905b828210156120835783829060005260206000209060020201604051806040016040529081600082018054611fe59061285a565b80601f01602080910402602001604051908101604052809291908181526020018280546120119061285a565b801561205e5780601f106120335761010080835404028352916020019161205e565b820191906000526020600020905b81548152906001019060200180831161204157829003601f168201915b505050918352505060019182015460ff16602091820152918352929092019101611fb2565b5050509082525060048281015460209092019160ff16908111156120a9576120a96125d3565b60048111156120ba576120ba6125d3565b815260058201546020820152600690910154604090910152608081015160a0820151919250904210156120ef5750600061215d565b8160a00151421015801561210657508160c0015142105b801561212357506001816004811115612121576121216125d3565b145b156121305750600261215d565b8160c001514211801561215457506002816004811115612152576121526125d3565b145b1561215d575060035b60405180610100016040528086815260200183600001516001600160a01b031681526020018360200151815260200183604001518152602001836060015181526020018260048111156121b2576121b26125d3565b81526020018360a0015181526020018360c001518152509250505092915050565b6000818152600260205260408120548190806000036121f9576000809250925050612280565b60006122058683612a89565b90506122118683612a9d565b1561221a576001015b8087111561223057600080935093505050612280565b600080838861224060018c6129cf565b61224a9190612ab1565b101561225f578760018a030284039150612263565b8391505b878211156122785761227588836129cf565b90505b909450925050505b935093915050565b60006002826080015160048111156122a2576122a26125d3565b1480156122b357508160a001514210155b8015610acb57505060c00151421090565b6040518061010001604052806000815260200160006001600160a01b031681526020016060815260200160608152602001606081526020016000600481111561230f5761230f6125d3565b815260200160008152602001600081525090565b634e487b7160e01b600052604160045260246000fd5b604051601f8201601f1916810167ffffffffffffffff8111828210171561236257612362612323565b604052919050565b600082601f83011261237b57600080fd5b813567ffffffffffffffff81111561239557612395612323565b6123a8601f8201601f1916602001612339565b8181528460208386010111156123bd57600080fd5b816020850160208301376000918101602001919091529392505050565b600080600080608085870312156123f057600080fd5b8435935060208086013567ffffffffffffffff8082111561241057600080fd5b61241c89838a0161236a565b9550604088013591508082111561243257600080fd5b61243e89838a0161236a565b9450606088013591508082111561245457600080fd5b818801915088601f83011261246857600080fd5b81358181111561247a5761247a612323565b8060051b612489858201612339565b918252838101850191858101908c8411156124a357600080fd5b86860192505b838310156124df578235858111156124c15760008081fd5b6124cf8e89838a010161236a565b83525091860191908601906124a9565b999c989b5096995050505050505050565b60008060006060848603121561250557600080fd5b505081359360208301359350604090920135919050565b6000815180845260005b8181101561254257602081850181015186830182015201612526565b506000602082860101526020601f19601f83011685010191505092915050565b600082825180855260208086019550808260051b84010181860160005b848110156125c657601f198684030189528151604081518186526125a58287018261251c565b9287015160ff1695870195909552509884019892509083019060010161257f565b5090979650505050505050565b634e487b7160e01b600052602160045260246000fd5b6005811061260757634e487b7160e01b600052602160045260246000fd5b9052565b60006101008251845260018060a01b036020840151166020850152604083015181604086015261263d8286018261251c565b91505060608301518482036060860152612657828261251c565b915050608083015184820360808601526126718282612562565b91505060a083015161268660a08601826125e9565b5060c083015160c085015260e083015160e08501528091505092915050565b6000602080830181845280855180835260408601915060408160051b870101925083870160005b828110156126fa57603f198886030184526126e885835161260b565b945092850192908501906001016126cc565b5092979650505050505050565b60006020828403121561271957600080fd5b5035919050565b60008060006060848603121561273557600080fd5b83356001600160a01b038116811461274c57600080fd5b95602085013595506040909401359392505050565b6000806000806080858703121561277757600080fd5b5050823594602084013594506040840135936060013592509050565b600080604083850312156127a657600080fd5b50508035926020909101359150565b602081526000610ab4602083018461260b565b6000602082840312156127da57600080fd5b81518015158114610ab457600080fd5b60208082526027908201527f526f6c65733a2063616c6c6572206973206e6f742061646d696e206f72206d6f6040820152663232b930ba37b960c91b606082015260800190565b6020808252600f908201526e125b9d985b1a590818db1d58881251608a1b604082015260600190565b600181811c9082168061286e57607f821691505b60208210810361288e57634e487b7160e01b600052602260045260246000fd5b50919050565b601f8211156128de57600081815260208120601f850160051c810160208610156128bb5750805b601f850160051c820191505b818110156128da578281556001016128c7565b5050505b505050565b815167ffffffffffffffff8111156128fd576128fd612323565b6129118161290b845461285a565b84612894565b602080601f831160018114612946576000841561292e5750858301515b600019600386901b1c1916600185901b1785556128da565b600085815260208120601f198616915b8281101561297557888601518255948401946001909101908401612956565b50858210156129935787850151600019600388901b60f8161c191681555b5050505050600190811b01905550565b634e487b7160e01b600052603260045260246000fd5b634e487b7160e01b600052601160045260246000fd5b81810381811115610acb57610acb6129b9565b602080825260139082015272125b9d985b1a59081c1c9bdc1bdcd85b081251606a1b604082015260600190565b60208082526022908201527f50726f706f73616c206973206e6f742061637469766520666f7220766f74696e604082015261672160f01b606082015260800190565b83815260608101612a6560208301856125e9565b826040830152949350505050565b634e487b7160e01b600052601260045260246000fd5b600082612a9857612a98612a73565b500490565b600082612aac57612aac612a73565b500690565b8082028115828204841417610acb57610acb6129b956fea2646970667358221220f471d1d0970cb2ad1d2eeed5ce3d2dbaf5b8e732bd7997e6dfbb70bf7422df4664736f6c63430008110033",
  "devdoc": {
    "kind": "dev",
    "methods": {},
    "version": 1
  },
  "userdoc": {
    "kind": "user",
    "methods": {},
    "version": 1
  },
  "storageLayout": {
    "storage": [
      {
        "astId": 4106,
        "contract": "contracts/Proposal.sol:Proposal",
        "label": "hasVoted",
        "offset": 0,
        "slot": "0",
        "type": "t_mapping(t_address,t_mapping(t_uint256,t_mapping(t_uint256,t_uint256)))"
      },
      {
        "astId": 4113,
        "contract": "contracts/Proposal.sol:Proposal",
        "label": "_proposals",
        "offset": 0,
        "slot": "1",
        "type": "t_mapping(t_uint256,t_mapping(t_uint256,t_struct(ProposalRecord)4078_storage))"
      },
      {
        "astId": 4118,
        "contract": "contracts/Proposal.sol:Proposal",
        "label": "_proposalIds",
        "offset": 0,
        "slot": "2",
        "type": "t_mapping(t_uint256,t_struct(Counter)574_storage)"
      }
    ],
    "types": {
      "t_address": {
        "encoding": "inplace",
        "label": "address",
        "numberOfBytes": "20"
      },
      "t_array(t_struct(Choice)4060_storage)dyn_storage": {
        "base": "t_struct(Choice)4060_storage",
        "encoding": "dynamic_array",
        "label": "struct Proposal.Choice[]",
        "numberOfBytes": "32"
      },
      "t_enum(Status)4051": {
        "encoding": "inplace",
        "label": "enum Proposal.Status",
        "numberOfBytes": "1"
      },
      "t_mapping(t_address,t_mapping(t_uint256,t_mapping(t_uint256,t_uint256)))": {
        "encoding": "mapping",
        "key": "t_address",
        "label": "mapping(address => mapping(uint256 => mapping(uint256 => uint256)))",
        "numberOfBytes": "32",
        "value": "t_mapping(t_uint256,t_mapping(t_uint256,t_uint256))"
      },
      "t_mapping(t_uint256,t_mapping(t_uint256,t_struct(ProposalRecord)4078_storage))": {
        "encoding": "mapping",
        "key": "t_uint256",
        "label": "mapping(uint256 => mapping(uint256 => struct Proposal.ProposalRecord))",
        "numberOfBytes": "32",
        "value": "t_mapping(t_uint256,t_struct(ProposalRecord)4078_storage)"
      },
      "t_mapping(t_uint256,t_mapping(t_uint256,t_uint256))": {
        "encoding": "mapping",
        "key": "t_uint256",
        "label": "mapping(uint256 => mapping(uint256 => uint256))",
        "numberOfBytes": "32",
        "value": "t_mapping(t_uint256,t_uint256)"
      },
      "t_mapping(t_uint256,t_struct(Counter)574_storage)": {
        "encoding": "mapping",
        "key": "t_uint256",
        "label": "mapping(uint256 => struct Counters.Counter)",
        "numberOfBytes": "32",
        "value": "t_struct(Counter)574_storage"
      },
      "t_mapping(t_uint256,t_struct(ProposalRecord)4078_storage)": {
        "encoding": "mapping",
        "key": "t_uint256",
        "label": "mapping(uint256 => struct Proposal.ProposalRecord)",
        "numberOfBytes": "32",
        "value": "t_struct(ProposalRecord)4078_storage"
      },
      "t_mapping(t_uint256,t_uint256)": {
        "encoding": "mapping",
        "key": "t_uint256",
        "label": "mapping(uint256 => uint256)",
        "numberOfBytes": "32",
        "value": "t_uint256"
      },
      "t_string_storage": {
        "encoding": "bytes",
        "label": "string",
        "numberOfBytes": "32"
      },
      "t_struct(Choice)4060_storage": {
        "encoding": "inplace",
        "label": "struct Proposal.Choice",
        "members": [
          {
            "astId": 4057,
            "contract": "contracts/Proposal.sol:Proposal",
            "label": "description",
            "offset": 0,
            "slot": "0",
            "type": "t_string_storage"
          },
          {
            "astId": 4059,
            "contract": "contracts/Proposal.sol:Proposal",
            "label": "votes",
            "offset": 0,
            "slot": "1",
            "type": "t_uint8"
          }
        ],
        "numberOfBytes": "64"
      },
      "t_struct(Counter)574_storage": {
        "encoding": "inplace",
        "label": "struct Counters.Counter",
        "members": [
          {
            "astId": 573,
            "contract": "contracts/Proposal.sol:Proposal",
            "label": "_value",
            "offset": 0,
            "slot": "0",
            "type": "t_uint256"
          }
        ],
        "numberOfBytes": "32"
      },
      "t_struct(ProposalRecord)4078_storage": {
        "encoding": "inplace",
        "label": "struct Proposal.ProposalRecord",
        "members": [
          {
            "astId": 4062,
            "contract": "contracts/Proposal.sol:Proposal",
            "label": "creator",
            "offset": 0,
            "slot": "0",
            "type": "t_address"
          },
          {
            "astId": 4064,
            "contract": "contracts/Proposal.sol:Proposal",
            "label": "title",
            "offset": 0,
            "slot": "1",
            "type": "t_string_storage"
          },
          {
            "astId": 4066,
            "contract": "contracts/Proposal.sol:Proposal",
            "label": "description",
            "offset": 0,
            "slot": "2",
            "type": "t_string_storage"
          },
          {
            "astId": 4070,
            "contract": "contracts/Proposal.sol:Proposal",
            "label": "choices",
            "offset": 0,
            "slot": "3",
            "type": "t_array(t_struct(Choice)4060_storage)dyn_storage"
          },
          {
            "astId": 4073,
            "contract": "contracts/Proposal.sol:Proposal",
            "label": "status",
            "offset": 0,
            "slot": "4",
            "type": "t_enum(Status)4051"
          },
          {
            "astId": 4075,
            "contract": "contracts/Proposal.sol:Proposal",
            "label": "votingStartTime",
            "offset": 0,
            "slot": "5",
            "type": "t_uint256"
          },
          {
            "astId": 4077,
            "contract": "contracts/Proposal.sol:Proposal",
            "label": "votingEndTime",
            "offset": 0,
            "slot": "6",
            "type": "t_uint256"
          }
        ],
        "numberOfBytes": "224"
      },
      "t_uint256": {
        "encoding": "inplace",
        "label": "uint256",
        "numberOfBytes": "32"
      },
      "t_uint8": {
        "encoding": "inplace",
        "label": "uint8",
        "numberOfBytes": "1"
      }
    }
  }
}